:100000000C94E43B0C94153C0C94153C0C94153C5E
:100010000C94153C0C94153C0C94153C0C94153C1C
:100020000C94153C0C94153C0C94153C0C94153C0C
:100030000C94153C0C94153C0C94153C0C94153CFC
:100040000C94153C0C94153C0C94153C0C94153CEC
:100050000C94153C0C94153C0C94153C0C941F58B6
:100060000C9499590C94E9570C94BF570C94153C77
:100070000C94153C0C94153C0C94153C0C94153CBC
:100080000C94153C0C94153C0C94153C0C94153CAC
:100090000C94153C0C94153C0C94153C0C9469582C
:1000A0000C94153C0C94153C0C94153C0C94153C8C
:1000B0000C94153C0C94153C0C94153C0C94153C7C
:1000C0000C94153C0C94153C0C94153C0C943F5529
:1000D0000C94793D0C9403410C94833E0C94CA3FDC
:1000E0000C9443400C94DE3F0C94293D0C949A41AF
:1000F0000C94953E0C94173D0C94653D0C94E05285
:100100000C9402480C9425400C946F3E0C94A33E32
:100110000C94873D0C94563D0C94673E0C94873E9E
:100120000C947F3E0C940C3E0C946B3E0C94C0449B
:100130000C94F83F0C94FD5F0C9402400C942647FD
:100140000C94F03F0C944D400C94213C0C949B3E3D
:100150000C94C4410C94203D0C94C53F0C942F404A
:100160000C94903C0C94753E0C94F1410C949F3E81
:100170000C948D3E0C94613E0C94793E0C94DA59AB
:100180000C94BD410C94913E0C9477470C94D43F51
:100190000C94FA450C9457400C9467470C949B417F
:1001A0000C940C400C94E83F0C94173C0C940944BC
:1001B0000C94EE460C94A73E0C94BD3F0C94AA41BF
:1001C0000C94B8520C9433530C9439400C94163D53
:1001D0000C94BF3D0C94A63E0C9434530C941640E2
:1001E000C10042044504450445044504C2004904D5
:1001F0004C044C0450045004C300540457045704E6
:100200005B045B04C4005F04620462046604660469
:10021000C5006A046D046D0471047104C6007504A0
:1002200078047C0480048404C70088048B048B0455
:100230008F048F04C800930496049A049E04A204B9
:100240002B02A604A904A904AD04AD04CA00B1049C
:10025000B404B804BC04C004CB00C404C704CB0479
:10026000CF04D304CC00D704DA04DE04E204E604AD
:10027000CD00EA04ED04F104F504F904CE00FD0418
:100280000005040508050C05CF001005130513052E
:1002900017051705D0001B051E051E0522052205A2
:1002A000D1002605290529052D052D05D20031058A
:1002B0003405340538053805B8003C053F053F05D1
:1002C00043054305D30047054A054E05520556052B
:1002D000D4005A055D05610565056905D5006D0504
:1002E0007005740578057C05D600800583058705B3
:1002F0008B058F05D700930596059A059E05A205E7
:10030000D800A605A905AD05B105B505D900B90503
:10031000BC05C005C405C805DA00CC05CF05D3056A
:10032000D705DB05A000DF05DF05DF05DF05DF05FD
:10033000A100E205E505E905ED05F105A200F505D9
:10034000F805FC0500060406A30008060B060F06C8
:1003500013061706A4001B061E06220626062A06FA
:10036000A5002E063106350639063D06E400410695
:10037000440648064C065006A700F00254065806EC
:100380005C066006A8006406670667066B066B06D7
:10039000A9006F067206720676067606AA007A062D
:1003A0007D06810685068906AC008D0690069406BA
:1003B00098069C068D00A006A306A706AB06AF060E
:1003C000DE00B306B606BA06BE06C2069000C60632
:1003D000C906CD06D106D506C900D906DC06E00659
:1003E000E406E80620001F031F031F031F031F036B
:1003F0002C00EC06EC06EC06EC06EC061400EF060E
:10040000EF06EF06EF06EF063A00F306F306F306F3
:10041000F306F306BB00F506F506F506F506F50648
:100420002E005D035D035D035D035D03BF00F80601
:10043000F806F806F806F8063000FB06FB06FB0691
:10044000FB06FB063100FE06FE06FE06FE06FE0665
:100450003200010701070107010701073300040704
:100460000407040704070407340007070707070702
:100470000707070735000A070A070A070A070A07D6
:1004800036000D070D070D070D070D073700100784
:10049000100710071007100738001307130713077A
:1004A000130713073900160716071607160716074E
:1004B0002900190719071907190719072800320415
:1004C00032043204320432040000210024002700E8
:1004D0002A002D00300033000000220025002800F3
:1004E0002B002E00310034000000200023002600E5
:1004F00029002C002F00320005050505050505051E
:1005000002020202020202020707040404040404B5
:1005100004040707030303030303030307010101A3
:10052000010101010106060606060606060701028C
:1005300004081020408001020408102040800810A8
:10054000010204081020408001020102040810206A
:1005500040800480402010080402010102040810B9
:10056000204080200000000A0B0C0000000000006A
:100570000804050600000000000000000000000064
:10058000000000000000000000000000000000006B
:100590000000000000000000000300000000000058
:1005A000000000000000000000000000000000004B
:1005B000000000000000000000000000000000003B
:1005C000000000000000000000000000000000002B
:1005D000000000000000000000000000000000001B
:1005E000000000000000000000000000000000000B
:1005F00000000000000000000000000000000000FB
:1006000000040000000000000000000000000000E6
:1006100000060000000000000000000000000000D4
:1006200000070000000000000000000000000000C3
:100630008007000000000000000000000000000033
:10064000C0070000000000000000000000000000E3
:10065000E0070000000000000000000000000000B3
:10066000000000000000000000000000000000008A
:10067000000000000000000000000000000000007A
:10068000000000000000000000000000E0FFFF0389
:10069000F007C03F00F8E30300000000F0FFFF0395
:1006A000F80FC07F00FCE30300000000F0FFFF0331
:1006B000FC0FC07F00FCE30300000000F0FFFF031D
:1006C000FE1FC0FF00FEE30300000000F0FFFF0379
:1006D000FF1FC0FF01FFE30300000000F03F000028
:1006E000FF3FC0FF83FFE30300000000E07F0080C6
:1006F0009F7FC0FF83FFE30300000000C0FF01C035
:100700000F7FC0F7C7FFE3030000000000FF0FC02A
:1007100007FEC0E7EFFFE3030000000000FC1FE05E
:1007200003FCC0C7FFEFE3030000000000E0FFE0B0
:1007300003F8C187FFE7E303000000000080FFF13A
:10074000F9FFC187FFE7E303000000000000FEF1AE
:10075000FCFFC307FFE3E30300000000F0FFFF79A5
:10076000FCFFC707FEE1E30300000000F0FFFF7D90
:10077000FEFFC707FCE0E30300000000F0FFFF3DC1
:10078000FFFFCF07FCE0E30300000000F0FFFF1EC7
:1007900000C0CF0778E0E30300000000F0FF7F0E09
:1007A00000C0DF0730E0E3030000000000000007A6
:1007B0000000000000000000000000000000000732
:1007C00000000000000000000000000000008003A6
:1007D0000000000000000000000000000000C00158
:1007E0000000000000000000000000000000C00049
:1007F0000000000000000000000000000000E00019
:100800000000000000000000000000000000600088
:1008100000000000000000000000000000003000A8
:10082000000000000000000000000000000000FECA
:100830000003FE017F00000000000000000000FE39
:100840000107FE83FF00000000000000000000FE22
:100850008107FEC7FF01000000000000000000CE7D
:10086000810F1EE7C303000000000000000000CE5F
:10087000C10F1EE78103000000000000000000FE21
:10088000C01F9EE38003000000000000000000FE87
:10089000E11DFEE380030000000000000000008E68
:1008A000E338FEE180030000000000000000008E3D
:1008B000F338EEE181030000000000000000008E2C
:1008C000F33FCEC3C303000000000000000000FEA1
:1008D000FB7FCEC7FF01000000000000000000FE0B
:1008E00079708E07FF01000000000000000000FE8C
:1008F0007CF00E0FFE03000000000000000000006E
:1009000000000000C0030000000000000000000024
:100910000000000080030000000000000000000054
:1009200000000000000000000000000000000000C7
:1009300000000000000000000000000000000000B7
:1009400000000000000000000000000000000000A7
:100950000000000000000000000000000000000097
:100960000000000000000000000000000000000087
:100970000000000000000000000000000000000077
:100980000000000000000000000000000000000067
:1009900000000000000000000000FFFFFFFFFFFF5D
:1009A000FFFFFFFFFFFFFFFFFFFFFFFFFFFFFFFF57
:1009B000FFFFFFFFFFFFFFFFFFFFFFFFFFFFFFFF47
:1009C000FFFFFFFFFFFFFFFFFFFFFFFFFFFFFFFF37
:1009D000FFFFFFFFFFFFFFFFFFFFFFFFFFFFFFFF27
:1009E000FFFFFFFFFFFFFFFFFFFFFFFFFFFFFFFF17
:1009F000FFFFFFFFFFFFFFFFFFFFFFFFFFFFFFFF07
:100A0000FFFBFFFFFFFFFFFFFFFFFFFFFFFFFFFFFA
:100A1000FFF9FFFFFFFFFFFFFFFFFFFFFFFFFFFFEC
:100A2000FFF8FFFFFFFFFFFFFFFFFFFFFFFFFFFFDD
:100A30007FF8FFFFFFFFFFFFFFFFFFFFFFFFFFFF4D
:100A40003FF8FFFFFFFFFFFFFFFFFFFFFFFFFFFF7D
:100A50001FF8FFFFFFFFFFFFFFFFFFFFFFFFFFFF8D
:100A6000FFFFFFFFFFFFFFFFFFFFFFFFFFFFFFFF96
:100A7000FFFFFFFFFFFFFFFFFFFFFFFFFFFFFFFF86
:100A8000FFFFFFFFFFFFFFFFFFFFFFFF1F0000FC57
:100A90000FF83FC0FF071CFCFFFFFFFF0F0000FC2B
:100AA00007F03F80FF031CFCFFFFFFFF0F0000FC6F
:100AB00003F03F80FF031CFCFFFFFFFF0F0000FC63
:100AC00001E03F00FF011CFCFFFFFFFF0F0000FCE7
:100AD00000E03F00FE001CFCFFFFFFFF0FC0FFFF18
:100AE00000C03F007C001CFCFFFFFFFF1F80FF7F5A
:100AF00060803F007C001CFCFFFFFFFF3F00FE3FCB
:100B0000F0803F0838001CFCFFFFFFFFFF00F03FB4
:100B1000F8013F1810001CFCFFFFFFFFFF03E01F60
:100B2000FC033F3800101CFCFFFFFFFFFF1F001FEE
:100B3000FC073E7800181CFCFFFFFFFFFF7F000E44
:100B400006003E7800181CFCFFFFFFFFFFFF010EB0
:100B500003003CF8001C1CFCFFFFFFFF0F00008699
:100B6000030038F8011E1CFCFFFFFFFF0F0000828E
:100B7000010038F8031F1CFCFFFFFFFF0F0000C23D
:100B8000000030F8031F1CFCFFFFFFFF0F0000E117
:100B9000FF3F30F8871F1CFCFFFFFFFF0F0080F1B5
:100BA000FF3F20F8CF1F1CFCFFFFFFFFFFFFFFF8F8
:100BB000FFFFFFFFFFFFFFFFFFFFFFFFFFFFFFF84C
:100BC000FFFFFFFFFFFFFFFFFFFFFFFFFFFF7FFCB8
:100BD000FFFFFFFFFFFFFFFFFFFFFFFFFFFF3FFEE6
:100BE000FFFFFFFFFFFFFFFFFFFFFFFFFFFF3FFFD5
:100BF000FFFFFFFFFFFFFFFFFFFFFFFFFFFF1FFFE5
:100C0000FFFFFFFFFFFFFFFFFFFFFFFFFFFF9FFF54
:100C1000FFFFFFFFFFFFFFFFFFFFFFFFFFFFCFFF14
:100C2000FFFFFFFFFFFFFFFFFFFFFFFFFFFFFF01D2
:100C3000FFF801FE80FFFFFFFFFFFFFFFFFFFF0147
:100C4000FEF8017C00FFFFFFFFFFFFFFFFFFFF013A
:100C50007EF8013800FEFFFFFFFFFFFFFFFFFF31BF
:100C60007EF061183CFCFFFFFFFFFFFFFFFFFF313D
:100C70003EF0E1187EFCFFFFFFFFFFFFFFFFFF01DB
:100C80003FE061187FFCFFFFFFFFFFFFFFFFFF0159
:100C90001CE2011C7FFCFFFFFFFFFFFFFFFFFF3196
:100CA0001CC7011E7FFCFFFFFFFFFFFFFFFFFF715F
:100CB0000CC7111E7EFCFFFFFFFFFFFFFFFFFF7150
:100CC0000C80313C3CFCFFFFFFFFFFFFFFFFFF01FB
:100CD0000480313800FEFFFFFFFFFFFFFFFFFF0131
:100CE000868D717800FEFFFFFFFFFFFFFFFFFF0112
:100CF000830FF1F001FCFFFFFFFFFFFFFFFFFFFF8E
:100D0000FFFFFFFF3FFCFFFFFFFFFFFFFFFFFFFFB6
:100D1000FFFFFFFF7FFCFFFFFFFFFFFFFFFFFFFF66
:100D2000FFFFFFFFFFFFFFFFFFFFFFFFFFFFFFFFD3
:100D3000FFFFFFFFFFFFFFFFFFFFFFFFFFFFFFFFC3
:100D4000FFFFFFFFFFFFFFFFFFFFFFFFFFFFFFFFB3
:100D5000FFFFFFFFFFFFFFFFFFFFFFFFFFFFFFFFA3
:100D6000FFFFFFFFFFFFFFFFFFFFFFFFFFFFFFFF93
:100D7000FFFFFFFFFFFFFFFFFFFFFFFFFFFFFFFF83
:100D8000FFFFFFFFFFFFFFFFFFFFFFFFFFFFFFFF73
:100D9000FFFFFFFFFFFFFFFFFFFF16000402050537
:100DA000030506141BFFF70BFC0CFD01F1048C0678
:100DB000552006001096002109821596F0816C10CE
:100DC0002208A4F89E10F1242322EAB5B115894522
:100DD0005291582416890C0E3291582416C90C0EC3
:100DE000226591582415894552002418C5F5A19211
:100DF000595428128A842223D2241409454251B11D
:100E00008900251DABF5B9214B4434918A41A4A634
:100E1000A44A93AC51456A4A8A224591444C012622
:100E20001D8A15B6A38BC422B1482C91930C229A2B
:100E30008A4C2493C85464341583C4022707A1F84C
:100E4000923010280DE4B99913A98964FA28132A5D
:100E5000290EE4B59910AA0965FA2413A9012A0EEE
:100E6000E7B09E5352D16693685293012B0C29F937
:100E7000AD146C34380A36022C0AA2B495304824DA
:100E800014002D0724789E30082E0742149630084F
:100E90002F0F059AA154136A136A136A130A0130BB
:100EA0000D65159E3149D4F84DA26401310B6515CD
:100EB0009E1219F5270301321065159EB1C8D8841A
:100EC00032A14C49223218331065159EB1C86842D0
:100ED00025AA904693580034146715A6A3122542FC
:100EE000894C2422890C06A158D140351365159EE2
:100EF00090192842A14142120A69241109003610B2
:100F000065159E22A9C88406898C9B44C9023710A6
:100F10008615A2901A0C429A50AA28D50D003810B6
:100F200065159EB1C8D8244A1619378905003911AC
:100F300065159E3149D4B8490C4299442422013A9E
:100F400009E21C9E30880D023B0C42B59530880D9D
:100F5000120905003C0925359A94E9AA033D0BAA1C
:100F600058B6F0208F1F1C043E0A25359A90EAA639
:100F700023003F0E8515A2B1C8681A65F418130046
:100F800040228A15B2334885321149221251284233
:100F9000094528A1082514A18424A2285168529A41
:100FA000810441186B11AE154D2682896022978904
:100FB00065620355512A32C80C02421B6A11AA709D
:100FC000204A656291582495198C529958241649E3
:100FD000250603090043156915AA334844428A9837
:100FE0004ED82E118B8442830800441B6A11AA70CC
:100FF000900A695299582416894562915824950996
:101000002906830C0045196A15AAF0269549652A18
:1010100032550355265213A9CAA412830B00461851
:101020006915A6F0241549453289482634106542D1
:1010300099503036100147186A15AA334864429215
:1010400058229748560D74915826151A2C00481DA1
:101050006B15AE30500C24A9502A940AA542834146
:1010600028154A8552A15464A01808490C651596A4
:10107000309084FA9381004A0C66159A31D0A4FA14
:1010800049C9064B1B6B15AE30900C22A950552652
:1010900016C92566925828154A950C2483004C11D0
:1010A0006811A23050E57A1409454291CCE0204DF8
:1010B000256E15BA30880D2232914C94082542894C
:1010C000502294C8444291469146194D28A3890C58
:1010D000148A81004E1E6B15AEB01948442151454B
:1010E0002694C88422459944289308854421C94000
:1010F00013014F146A15AA33488532B144D0C34452
:101100002C134A0D320050156915A670A0094952DA
:1011100091542424196C82CD0622005117CAB5A916
:1011200033488532B144D0C344629291A806C99233
:101130009C0252186B15AE70100BA58A52A1AA81A1
:101140002CA30AA542A95066A019530F66159E311B
:101150001899C564319168B00054116915A6F02042
:1011600093D1643445C19E0D2400551A6B15AE30E1
:10117000500C24A9502A940AA542A9502A940AA5E1
:101180006A72230056196B15AE30C80C22A950AAFA
:1011900026968965728960229848465300572170C7
:1011A00015C230C84C069190A8485413C9A422CD4A
:1011B00022CD22CD12A1444E241409632100581AD5
:1011C0006B15AE30880C4299582498084A93899C34
:1011D000229749950C32830059156B15AE30C80C17
:1011E00022A99A582697082EA30D071A005A1467A9
:1011F000159EF026114A6462A99A4826114A64068F
:10120000075B0A0396953088F4FF645C0F059AA18A
:10121000104A855A855A855A85025D0A039295308F
:10122000E9FFC9205E0965349B925964025F072B70
:10123000D4B1F0406009831C9B109164026110E6F8
:10124000149E31C9A42283442691890C0462158618
:10125000159EA0EA6A10C92432894C2293C824063C
:101260000900630CE5149AB1C888DA2416006414E6
:1012700086159EA3EA6490C82432894C2293C84400
:101280000602650DE5149AB1C80C06A19AC402665F
:101290001085159AB2882442358348A89B090067B7
:1012A000166795A13250642299482632C8C4068A2E
:1012B000945562A00068128715A220EB6C9029C992
:1012C0004432914C249338690A631592A0D0497A2C
:1012D000316A0CC4B19562AAE91BC920016B13875E
:1012E00015A220EBC52011C92442A3842612590C53
:1012F0006C0983159220E9BF186D12EB14B23050BF
:101300006C9A644A322599924CC5036E10E714A278
:1013100030D094642299482692491C6F0BE5149AA8
:10132000B1C878935800701546B59D3090641299F5
:1013300044269149641283482AB401711446B59D2C
:1013400031486412994426914964228354D1007231
:101350000DE5149AA088288ADA0C1200730CE514A3
:101360009A31D0A8569A8102740E46159E92AA19F7
:1013700068524DDA28007512E714A2209164229970
:101380004826928964320301760EE814A630991437
:1013900045429194CC067713EB10AEB0386994684F
:1013A00094689468A590653200780DE814A6309989
:1013B00054C9AC229103791248B5A1309914454221
:1013C0009194CC2C1409AD007A0EE5149A70928891
:1013D000644A1291C1007B0D0596992309F54415C5
:1013E000EA2B017C08019A8DF083007D0E05929511
:1013F000A00AF54A12EA130D007E0B6534A31151C1
:101400002424090000000010069106D1FB5007D2E9
:10141000FE7407C5FFFF060C0982148EA11804068E
:101420001B0BE21492A118440601061F0F4515A2DA
:10143000B1C86812A9503C140106210DC41496319C
:10144000C88406920C0006220FC61196951824D265
:101450002951AADF0006230D031692B159461491B3
:101460007E01062415C7B1A525CA89F2B05422947D
:1014700008CD62A2C8200206250D035695115144DD
:10148000FAE16602062618ABD1AD23CC0AF3D841A7
:101490002C152A930413C1484A34100106270B4225
:1014A00019969058F40B000628112D91B59C886A66
:1014B000B543C9E01E178E0106291045159E5192AD
:1014C00048872489924D6210062A130DF1B595883C
:1014D00026F2904454AB1D4A063700062B154DF5F5
:1014E000B916CE26A2893C2411D56A8792C10D0077
:1014F000062C166A55AD31CB0C42B3643093CAA4A6
:10150000A24995662001062D146A55AD31CB0C42D7
:10151000B36430599A5469061200062E16CA55ADA6
:1015200094CC2366994168960C264B932ACD4002B1
:10153000062F0DC5149A134A85240A090006300E99
:1015400045159A12CA87522189420206310E069524
:101550009D948AA58A348A410406321186959D9409
:10156000CA4352B15491463188000633170F75C1F2
:101570009789E43291446CA1C8C572B15C917290B4
:101580000406341DCF75C11B4F27C2893C652692C6
:10159000CB4412B1852217CBC57245CA411206351C
:1015A000183175C93DD6E422A9446C3050E47485E5
:1015B000B964483BC80206361C9175C99A47E4C90C
:1015C000C69A5C2495880D068A9CAE30970C6907F4
:1015D00059000637114815A69293E53AD14C8A0670
:1015E0000305000638124815A692934534B9269A89
:1015F00049D160A0000639148935A9B2CA25232A29
:10160000593017AC4C49061200063A160936A91291
:10161000CC6357B96444250BE6829529C94002067C
:1016200040082910A6F0000641178E15BE9BCED3A8
:101630006A13D28832314D8813C1CD602002064230
:101640001AC9B5A9958825F250594215494512A1E4
:1016500041CE2C120A0D32000643184A15AE9814DA
:10166000C62229492C92C84812B9842C3218440049
:1016700006441488D5A59693E53A09255289542243
:101680009419640006450EA6F59C114AC82283559C
:101690007F0506461148D5A993CB63729194CC2A55
:1016A00032900006470EC5149E1292246A348905B2
:1016B0000006481007B1A555114A846631516410DF
:1016C000010649140BD1AD3788A5426592602218F6
:1016D0004989062200064A186B75B13788A542650C
:1016E000926022184989067A4822988801064B0B95
:1016F00084548332080D2200064C0D85749BA34848
:101700000C12110900064D0B84548132080D220081
:10171000064E0A64549B93506400064F0BA47497C2
:101720005211A9D00006500A6494819350640006B7
:10173000510B659483A4482C120006520A837493BB
:1017400051A1580006530B66748395182452000665
:101750005409837483B19900065509839481B19922
:101760000006600A6374969158240006610B4315C5
:1017700096A0B058987406620D4615A2A0193C11A7
:101780005975030663104615A210490C0E121191EB
:1017900055370006641265F59D9291684283884D25
:1017A0002834502C0006650F05399E229924369A5C
:1017B000C560220106660F2615A290490C248354A9
:1017C0009548550667134615A210124D06918822BA
:1017D000A2C86C5425000668134615A2924A6936C1
:1017E00009494212194446A20006691245159E2174
:1017F000492822894124110A694405066A124715BD
:10180000AA95D0A462A9582A1651C45200066B0AA0
:10181000A4AC8DD3242101066C0BA214963048246D
:101820001400066D0FC7B4A613CB0C0691512253BA
:1018300001066E0ECDF0B59C886AB543C9E0060678
:101840006F1549B5A9264BA822A9482234C8994545
:1018500042A14106067008815483300806710FE5E5
:10186000119653911868439A503F0106720FE50D87
:101870009623490DA4214DA85F0006730FE56D95D1
:1018800013D284FAA524359000067409839497B185
:10189000990006750EA6199AA4894D22A254BF027A
:1018A000067615C9B1A5274BCAF2D05C2296880DE1
:1018B0004B42A1410806771AC9B1A5939124AA32D7
:1018C00092444D1E964BC412B1614928340801065A
:1018D0007819CDD5B92B4D4BF35483602E148B89D9
:1018E00082996028251BC8000679122DF5B9150EBE
:1018F0004F4789A8563B940C6E00067A146DF1B5DB
:1019000016CE43C3794C22AAD50E25831B00067B35
:10191000148D35B99C886AB543C9E01E17CE43C300
:101920003100067C166D91B5958826F2904454AB33
:101930001D4A0687D2485406067D154DF5B995888F
:1019400026B2E13C2611D56A8792C10D00067E15AC
:101950006D55B99C886AB543C9E01E958826B2E1E9
:101960001C00067F176DF5B9958826F2C0443491A6
:101970008724A25AED5032B8010680178D35B99CE4
:10198000886AB543C9E01E968826F2C044349102A5
:101990000681182A56ADA48BEAF2E05966109A2502
:1019A00083C9D2A44A3390000682194A56AD94CC1A
:1019B000839279EC2C3308CD92C1646952A5194801
:1019C000000683176A55AD31CB0C42B3643093C81F
:1019D0005464A249956620010684186A55AD31CB3E
:1019E0000C42B3642495492533B1484CA5194800ED
:1019F00006851A2A56AD940C2672893C7496198471
:101A000066C960B234A9D20C240006861A6A55ADA4
:101A100031CB0C42B3643092084512A14C2C1253C6
:101A20006906120006871B6A55AD31CB0C42B364C0
:101A30002491A9C824338950241152690612000642
:101A4000881085159A100A4DF6A15448A2900006F8
:101A5000891025B599134A85240A512691890006D3
:101A60008A0E459599134A85240A792802068B1215
:101A7000059699110A4DE6A15448A29087220006C6
:101A80008C0F45159A519288875221894202068D02
:101A90001025B599134A85240A6122924800068EC2
:101AA0001285159A12CA24228978281592282400B2
:101AB000068F1185159A5192C884F2A15448A290BC
:101AC00000069013A5159A5192C8252289782815E9
:101AD00092282400069113C6959D924A6DF6905463
:101AE0002C55A4510C2200069213A795A192A94847
:101AF000E551B15CAC4A2419640006930F26759D2C
:101B0000948AA58A348A41222406940F46559D94CE
:101B10008AA58A348A412E1506951386159D948AC6
:101B2000A58A348A4132134984220006961246550A
:101B30009D948A2532894C48A318E45201069713D4
:101B400086959D93C824F288542C55A4510C2200EC
:101B5000069815C6959D940A2532893C22154B1589
:101B60006914830800069916E6959D93C824928906
:101B70004C228F48C552451AC52002069A1C8F7503
:101B8000C11BCF936622B94C24115B2872B15C2C27
:101B900097291285064900069B1D2F55C19789E498
:101BA0003291446CA1C8C572B15C241109691299C3
:101BB000412C1E01069C23EF55C11B4F27C2893CB7
:101BC000652692CB4412B1852217CBC5729144246D
:101BD000A4496406B17804069D1C3175C93DD6E45C
:101BE00022A9446C3050E47485B94C22131225426A
:101BF000832C00069E1FF175C99B47E413F1449E98
:101C0000D958938BA412B1C14091D315E69221ED1E
:101C1000200B069F174815A692C948329144A4226A
:101C2000922BD14C8A0603050006A01A4936A91347
:101C3000CC2562893C72954B4654B2602E589992DD
:101C40000C240006A1140E15BEAB4D4823CAC434A3
:101C5000214E043783810806A2178E95BDAB4D48EF
:101C600023CAC434214E043783819E321D0306A348
:101C70001A0E96BD9BCED36A13D28832314D88138B
:101C8000C1CD60A0A74CC70006A41BCE15BE9B0EFD
:101C900027B2893CA936218D2813D3843811DC0C56
:101CA00006220006A51BAE75BDAB4D4823CAC43441
:101CB000214E043783811E9DC826C2E9080006A66E
:101CC0001DEE15BE9AC826F2D044369127D526A41B
:101CD0001165629A1027829BC1400406A718C9B5F6
:101CE000A916CC63650955241549840639B34828DB
:101CF00034C80006A81C09B6A916CC2562893C5434
:101D00009650455291446890338B8442830C000670
:101D1000A919CCF5B59B142A4349A1321B4EC52401
:101D2000C9445428190C340006AA112E15C227B52F
:101D30004DC70707717162F00206AB196CF5B59BD0
:101D4000142E6291442C134CC524C9445428190CF8
:101D5000340006AC1BAA15AE95CCE392C2582425DC
:101D60008945121949229790450683080006AD1E41
:101D7000EA15AE950C2672893C2C298C4552925856
:101D8000249191247209596430880006AE1E0A56C7
:101D9000AD9814C62229492C92C84812B9842C3215
:101DA00018E4B1895C22980C0106AF18ECF5B59BDC
:101DB000142A4349A1321B0E6B8289A8A16430D03A
:101DC0000006B01CCCF5B59B142A4349E122164904
:101DD000C432C1544C924C448592C1400306B11C9C
:101DE0000CF6B55991CC2485CA5052A8CC865331F3
:101DF000493211154A06030D0006B21D4C76B59BFB
:101E0000142A4349A1321B4EC524C9445428190C35
:101E1000F4149589140006B31E8C36B59B142A431E
:101E200049A1321B4EC524C9445428190CF4A86C8E
:101E30001E988D0106B41E4CF6B5974D2713C94C5C
:101E400052A80C2585CA6C381593241351A164300F
:101E5000D00006B51929D6A994492572796C501776
:101E6000EC2614494552915068100206B61708D660
:101E7000A596CB0373B25C27A1442A914A8432838E
:101E80000C0006B71A48D6A5968B2552893C2E27FA
:101E9000CB75124AA412A9442833C80006BA0EE82A
:101EA000D4A9968BA4645691810406BB13A8D5A926
:101EB00092CBADF6D05C2425B38A0C240006BC1569
:101EC00069B5A913CCA3829954229688255292C150
:101ED000223606BD1588D5A9948B2552893C221738
:101EE00049C9AC2203090006BE10C8F4A9328A4CC5
:101EF0005A2424250A190006C0116515A222494951
:101F0000A22149A26493180406C10C8614A6A21942
:101F10002432AA0006C2104615A6A38969F210CD84
:101F20002091510506C30F0615A692C824F29A41C6
:101F300022A30A06C41307B1A555114A8436918A13
:101F400084241119440006C51107B1A555114A840E
:101F50006691C12832880006C616A8B1A15394889C
:101F6000E581B1442A91DA558432830C0006C71604
:101F7000C7B1A55591AAC8E453895022348B892250
:101F800083080006C813C7B1A5156B8FAA082542A0
:101F9000B3982832880006C916A8B1A1154B84321F
:101FA0007958452A91DA558432830C0006CA158780
:101FB000B1A5940825F2A054229408CD62A2C820AD
:101FC0000206CB17C7B1A5154B2542893C289508B9
:101FD0002542B3982832880006CC140BD5B1378837
:101FE000A5426592602218498906220006CD150D8A
:101FF000D1B53908E642B1984698280CA56403117A
:102000000006CE186BD1AD91C92592F1412C152A4D
:10201000930413C1484A34100106D019CB15B137C7
:1020200088A54265926022184989067A50340F8B40
:10203000C60006D11AAB35B13788A5426592602239
:10204000184989067A4822984846730006D2100D2E
:1020500095BD964D441341A5349C1E3C06D3146D8A
:1020600095BD224D4B43D9443411544AC3E9C103B1
:1020700006D4082574A2301006D50DC414969251CA
:10208000242492840206D612EA5483922CD2244A43
:102090001215834474B00106D7130755839488C47E
:1020A00022994449449158E4060306D80B8454838A
:1020B000529150640006D90DC45483104974A29003
:1020C000280006DA12075583218A6C52B148261679
:1020D0008A0C120006DB09635483114A0406DC0DE6
:1020E0008954839468A2A849AD0006DF0A6354832B
:1020F0009158240006E0076254837006E10A65D413
:1021000083A14A0C0406E20C045583118A0C32DDCB
:102110000006E30D8974819468A2A849AD0006E425
:102120000A4554831151280006E50DC4949A5211B2
:10213000D14412120006E60DA994AA934BA472C1D1
:10214000C10106E70DA95483934BA472C1C10106D6
:10215000E80CA45483919248120A0006EA0DA55493
:10216000819249D4246A220006EB0DA5548392493A
:10217000D4246A220006EC0A635483915824000692
:10218000ED0C04F580118A0C32DD0006F00A637450
:10219000929158240006F10B431596A0B0589874FC
:1021A00006F20D4615A2A0193C1159750306F3104D
:1021B0004615A210490C0E12119155370006F41362
:1021C0004615A210510C062A4962A01864526D00EF
:1021D00006F5154615A292D26C12928422339224EF
:1021E000068384220106F6114615A2A21924449AF8
:1021F000C420E328950206F7134615A210124D06D7
:10220000918822A2C86C54250006F8134615A292A4
:102210004A693609494212194446A20006F9124594
:10222000159E21492822894124110A69440506FA8C
:102230001FCF75C11B4F27C2893C453692CB441234
:10224000B1852217CBC57299225168900406FB1DF7
:102250009175C99A47E441EB4C36948B4426B18181
:1022600028A72BCC858A54A9411606FC190936A942
:1022700012CC6357B96444250BE632A14C289992DD
:102280000C240006FD0FA4159631C884069260A2A6
:10229000FF0106FE18A6F59D114AC8228355494242
:1022A00092902424094942925001FB500FE5119667
:1022B00053911868439A503F01FB510FE511965313
:1022C000911868439A505F09FB52148D35B99C8868
:1022D0006AB543C9E01E17CE43C33100FB53156FE7
:1022E00035C1918E66A219DD603118E8B1F13CBCB0
:1022F00012FB540F655199930A8506BA5032940126
:10230000FB550E465199932A192C53D95404FB5668
:10231000156D55B99C886AB543C9E01E958826B2EB
:10232000E11C00FB57174F55BD918E66A219DD6069
:102330003118E8A18970221D4F02FB58114571998F
:10234000930A8506BA442491094500FB5910267169
:1023500099932A190C139944281501FB5A178D35A6
:10236000B99C886AB543C9E01E968826F2C04434F9
:102370009102FB5B1A6F35C1918E66A219DD603147
:1023800018E8B18970220F4E84133900FB5C136585
:102390005199930A8506BA4424914B44120900FBD3
:1023A0005D12465199932A190C139944329149248C
:1023B00000FB5E146DF1B516CE43C3794C22AAD54D
:1023C0000E25831B00FB5F156FF5BD17CFC3EB8197
:1023D000E968269AD10D1683810CFB600F65119A6E
:1023E000124A86A2A95068A000FB610E66119A935A
:1023F000CAA6F29054C960FB62176DF5B99588269C
:10240000F2C04434918724A25AED5032B801FB63E4
:102410001A6FF5BD950827F2E044389107A6A399F5
:10242000684637580C063200FB641365119A92888F
:102430002472894822980A85060A00FB65126611F3
:102440009A92C82492894C228F48950C06FB6612FA
:102450002DF5B9150E4F4789A8563B940C6E00FB1D
:1024600067142FF5BD158F8F87E968269AD10D1651
:1024700083810CFB680F65119A120A4DD6A950682A
:10248000A000FB690E66119A924A6DF6B854C960B5
:10249000FB6A1BCE15BE9B0E27B2893CA936218D47
:1024A0002813D3843811DC0C062200FB6B1ED0F5F8
:1024B000C19B8F27D2893C0B75421CA94C48A2892D
:1024C0004838135C4806031900FB6C16A5119A12D4
:1024D000CA242289B424A1882412924468A000FB53
:1024E0006D148811A2938B2552893C4E15094552D3
:1024F00032CD64FB6E1DEE15BE9AC826F2D044366E
:102500009127D526A41165629A1027829BC14004A9
:10251000FB6F20F0F5C19A4827F2F0443A9167A189
:102520004E882395094934110967820BC96020033D
:10253000FB7017C5119A5192C8252289B424A1882D
:102540002412924468A000FB7117C811A29248257A
:10255000F2B0442A91C7A922A1484AA6990CFB725D
:10256000186A55AD31CB0C42B3642495492533B17B
:10257000484CA5194800FB73196A55A931CB0C4288
:102580008B5093C820934A666291984A339000FB1F
:1025900074114951A9B2CA281383EB601E120C01B1
:1025A000FB75124A51D132CB4823838378320F4ACC
:1025B000A600FB76176A55AD31CB0C42B36430935D
:1025C000C85464A24995662001FB77186A55A93161
:1025D000CB0C428B50AB412691A9C844932ACD40E5
:1025E00002FB7810E9B0A9B2CA281383E3442C9106
:1025F00001FB7911EAB0D132CB482383837422974F
:102600000801FB7A1A6A55AD31CB0C42B3643092A3
:10261000084512A14C2C125369061200FB7B1B6A61
:1026200055A931CB0C428B50AB4124118A244299DD
:102630005824A6D20C2400FB7C122971A9B2CA2806
:102640001383E3442C910B8600FB7D132A71A9327E
:10265000CB4823838374229708265300FB7E1B6A92
:1026600055AD31CB0C42B3642491A9C824338950B1
:1026700024115269061200FB7F1A6A55A931CB0C4E
:10268000428B508B8A4124114A4612A94495CD4071
:1026900002FB80144951A9B2CA281383E3442C9148
:1026A0004FC4121900FB81154A51D132CB48238304
:1026B00083742297C84312B94408FB821025B59948
:1026C000134A85240A6122924800FB831247B59D74
:1026D00013CBC54A221A8930114A6400FB840F4586
:1026E000159A519288875221894202FB85116715FC
:1026F0009E5194C8A362B95849442311FB861285A0
:10270000159A12CA24228978281592282400FB875A
:1027100014A7159E124B2542893C2A968B9544346A
:102720001201FB881085159A100A4DF6A15448A293
:102730009000FB8912A7159E128B8DF6A0582E567D
:1027400012D14804FB8A15C6959D940A2532893C0E
:1027500022154B156914830800FB8B15C875A594C9
:102760008B2552893C2EA75BE5622ACD2004FB8C89
:1027700013C6959D924A6DF690542C55A4510C2287
:1027800000FB8D14C875A592CBADF6C09C6E958BE1
:10279000A934831000FB8E166DF5B91C554AC3E9A8
:1027A000544E124D441341CD602002FB8F144F153F
:1027B000BE1CD68AE3C158A1289A8986060F04FB5D
:1027C00090114811A29712A972C1A03097184C001D
:1027D000FB91114B11AE18D409A3D9AC369A191C30
:1027E00008FB921ACDF5B91C554A4351A5349C4EAD
:1027F000E524D1443411D40C062200FB9317AF1505
:10280000C21CD68A4361AD381E8C158AA2996868AD
:10281000F040FB9414A811A29712A94229912A17FB
:102820000C0A7389C104FB9515AB11AE18D409438A
:10283000419D309ACD6AA399C18100FB961F8D36C8
:10284000B91C554A4351A5349C4EE524D14434115A
:10285000D40C067A5C380F0DE700FB971D8F36C14C
:102860001CD68A4361AD381E8C158AA2996868F01F
:10287000404F18CFC3CB00FB98186852A19712A9FC
:102880004229912A170C0A7389C13A97CF8500FB18
:10289000991A6B52AD18D40943419D309ACD6AA361
:1028A00099C1813E9A87456300FB9A1C0DF6B95A7F
:1028B00011CD4495D25054290DA753394934114DA7
:1028C0000435838108FB9B1BEF15C21A4E843361CC
:1028D000AD3814D68AE3C158A1289A8986060F0418
:1028E000FB9C17E811A25591CAA444AA504AA4CA55
:1028F0000583C25C623001FB9D18EB11AE164C04DF
:1029000033419D3014D409A3D9AC369A191C08FB65
:102910009E0EE8D4A9968BA46456918104FB9F1166
:10292000E994A516CCA46689582295196800FBA0E5
:1029300013A8D5A992CBADF6D05C2425B38A0C247C
:1029400000FBA115C995A5120CCEF674C14C6A9670
:10295000882552998106FBA20F651196120A4DD661
:10296000A95068A000FBA30E66119A924A6DF6B8B2
:1029700054C960FBA41185159E224949F22149A240
:1029800046935800FBA51086159EA28969D2214D59
:1029900022D2CD4CFBA60EC5149E1292246A348915
:1029A0000500FBA70D8814A6A31A64328A9400FBC5
:1029B000A80B43918DD2C92C1111FBA90CE670997B
:1029C000119218A5DA00FBAA10C8F4A9328A4C5A51
:1029D0002424250A1900FBAB12CAF4AD328B8C22D9
:1029E0003509492832180401FBAC0FA910AAB38A93
:1029F0006C222D248B8802FBAD11AA10AA338B8C7C
:102A00002235094942111904FBAE100D95BD964DB2
:102A1000441341A5349C1E3CFBAF0F0B35A5268CFF
:102A20000675C268767010FBB0146D95BD224D4BD3
:102A300043D9443411544AC3E9C103FBB1136B3584
:102A4000A522CC0A43C26850278C66070701FE7096
:102A50000B84549B32080D2200FE710D4991AEA4E7
:102A600052AAF4AC0607FE720D85749BA3480C12A3
:102A7000110900FE740B84549932080D2200FE7671
:102A80000944549B328800FE770B0991AEA4D2B35F
:102A90001A1CFE780BA474975211A9D000FE790F6E
:102AA0008991A6944BE42A5279F68303FE7A0A644C
:102AB000949993506400FE7B0C2991ADF09E514C8B
:102AC0009603FE7C0B659483A4482C1200FE7D0EB9
:102AD0006991AE164A1429F29C0D0EFE7E0A8354AB
:102AE0009351A15800FE7F0F4991A6934BC4123118
:102AF0003DABC101FE800DC4149631C88406920C12
:102B000000FE810FC61196951824D22951AADF0024
:102B1000FE8210C6119A951824D22951AACF14000A
:102B2000FE830D031692B1594614917E01FE840F67
:102B3000041696A10829C21949A68F04FE8515C757
:102B4000B1A525CA89F2B054229408CD62A2C8204A
:102B500002FE8617C995A9254BCAF2E05C2296C8E9
:102B60000D62C14828340801FE870D0356951151A6
:102B700044FAE16602FE8810045695919164FA4881
:102B8000A908293200FE8918ABD1AD23CC0AF3D8AD
:102B9000412C152A930413C1484A341001FE8A16A9
:102BA0008B75B124CC0AF3F8D440158A49829194EC
:102BB000682002FE8B0F641196A20829C2A14C6600
:102BC0009000FE8C0E46119AA38969F29854C96050
:102BD000FE8D0B4219969058F40B00FE8E0B431994
:102BE00096105144FA46FE8F112D91B59C886AB516
:102BF00043C9E01E178E01FE90140F95C1918E6699
:102C0000A219DD603118E8B1F12400FE910D05B183
:102C100099930A8506C25004FE920DE6B099932A54
:102C2000192C531100FE931045159E51924887248C
:102C300089924D6210FE941266159E92C824F28805
:102C4000CCA4449159C504FE95130DF1B595882681
:102C5000F2904454AB1D4A063700FE96150FF5BDA1
:102C6000950827F2C0743413CDE8068BC14006FEE8
:102C7000970F05119A92882482A95068A000FE98A7
:102C80000E06119A92C824F28854C960FE99154D17
:102C9000F5B916CE26A2893C2411D56A8792C10DBA
:102CA00000FE9A174FF5BD164F27C2893C301DCD47
:102CB0004433BAC162309001FE9B1145119A13CA88
:102CC000242289602A141A2800FE9C1046119A9327
:102CD0000A2532893C22553218FE9D166A55AD31BF
:102CE000CB0C42B3643093CAA4A24995662001FE7E
:102CF0009E176A55A931CB0C428B50AB41269549A2
:102D000045932ACD4002FE9F0F0991A9B2CA28130C
:102D1000837B5C3004FEA00F0A91A932CB48238349
:102D2000833CB20AFEA1146A55AD31CB0C42B364A8
:102D300030599A5469061200FEA2156A55A931CB82
:102D40000C428B50AB41B234A9D20C2400FEA30C30
:102D50008910AAB2CA28138303FEA40D8A10AA32CE
:102D6000CB4823838300FEA516EA55AD94CC636758
:102D7000994168960C264B932ACD4002FEA617EA8D
:102D800055A994CC6367994168116A3548962655D0
:102D90009A8104FEA70E0911AA14CC235719656263
:102DA00070FEA80F0A15AA94CC8367196964701085
:102DB000FEA90DC5149A134A85240A0900FEAA0E1D
:102DC000E7149E13CBC54A221A8900FEAB0E4515A7
:102DD0009A12CA875221894202FEAC0F67159E12D1
:102DE000CBC3EA6225118D44FEAD0E06959D948AF3
:102DF000A58A348A4104FEAE0F0875A594D3AD723E
:102E00003195661002FEAF1186959D94CA4352B16A
:102E1000549146318800FEB0128875A594CB037397
:102E2000BA552EA6D20C4200FEB1170F75C1978974
:102E3000E43291446CA1C8C572B15C91729004FEF9
:102E4000B2181175C597892433914C6C70900BE6BC
:102E500082B964483BC802FEB30B6B10AE53922993
:102E6000193CFEB40E6D10B65392CA44228307017A
:102E7000FEB51DCF75C11B4F27C2893C652692CB7D
:102E80004412B1852217CBC57245CA4112FEB61F46
:102E9000D175C59B47E413F1449E3E1349662299C0
:102EA000D8E02017CC0573C990769005FEB7122B99
:102EB00011B2174D2682893C3813C9940C1EFEB8F6
:102EC000142D11B617CE26A2893C4D492A13890C20
:102ED0001E04FEB9183175C93DD6E422A9446C30F0
:102EE00050E47485B964483BC802FEBA183275C90B
:102EF000BDD60423A9486C70A013E692B968483C7B
:102F00000803FEBB0F8D10BAB909692299D4E041BC
:102F100002FEBC0F8D10B638CA684A5289C18300C0
:102F2000FEBD1C9175C99C47E489C69A5C249588AE
:102F30000D068A9CAE30970C69075900FEBE1C92A4
:102F400075C99C87E4C9D69A602415890D0E74C290
:102F50005C32170D89076100FEBF12ED10BA18CE62
:102F60006337214D24931A3C4800FEC011ED10B682
:102F700017CE6347194D492A317810FEC111481503
:102F8000A69293E5BAD86822A1C14001FEC21049B9
:102F900015A612D405BB18698A128303FEC3114714
:102FA00011A21153C5BA986812A1C12001FEC41123
:102FB0004A11AA921426BB58694225838300FEC594
:102FC000144815A69293E5229A5CC54613090D068E
:102FD0000A00FEC6134A15AA92142623AA64C54AFB
:102FE000132A191C04FEC7144811A69293E5229ACD
:102FF0005CC54613090D060A00FEC8134A11AA92C1
:10300000142623AA64C54A132A191C04FEC914896C
:1030100035A9B2CA25232A593017AC4C49061200EB
:10302000FECA156955A5B252C872ABCC20910B5699
:10303000A624030900FECB0DA7109EB349E53283F9
:103040004102FECC0DA7109EB2518852138D00FE96
:10305000CD160936A912CC6357B96444250BE68214
:103060009529C94002FECE17E955A513CC43570A4E
:10307000596E95192472C1CA94642001FECF10279D
:10308000119E13CBA336A95C66304800FED00F28F2
:1030900011A294CBE3460A556CB211FED1178E15DE
:1030A000BE9BCED36A13D28832314D8813C1CD6016
:1030B0002002FED21A90F5C19BCF335127C491CA8A
:1030C00084249A888433C18564309001FED31365CB
:1030D0001192128A4B128A4822214984060A00FE64
:1030E000D4114811A293CB035591502425D34C06FB
:1030F000FED51AC9B5A9958825F2505942154945FA
:1031000012A141CE2C120A0D3200FED61CCB75B195
:10311000950826F214C2842E928B6442835D241794
:103120008985CA062900FED7146511925192484B31
:10313000128A4822214984060A00FED8134811A2A7
:10314000924825F23855241449C9349301FED91800
:103150004A15AE9814C62229492C92C84812B9843F
:103160002C32184400FEDA164B15AE1855E6223103
:10317000492E5223A98BC832838300FEDB114811EC
:10318000A29712A972C1A03097184C00FEDC114B17
:1031900011AE18D409A3D9AC369A191C08FEDD1457
:1031A00088D5A59693E53A09255289542294196445
:1031B00000FEDE14C995A516D405FB2634484552F9
:1031C0009150681002FEDF0C441192929164FA4211
:1031D00002FEE00C441192929164FA6210FEE10E3C
:1031E000A6F59C114AC82283557F05FEE20FA7F57C
:1031F0009C914AE8328341AC3F03FEE30D8710A265
:10320000248A4424838402FEE40D8910A6248B843E
:10321000248A8501FEE51148D5A993CB6372919468
:10322000CC2A329000FEE6144995A513CCA38299CE
:10323000D42C114BA432030D00FEE70D25119A1278
:10324000CAA742A18102FEE80D06119A93CA435211
:10325000258301FEE90DC4149A925124249284021C
:10326000FEEA0DE6149E13D22422DDCC04FEEB13FD
:10327000E810A29353253489842411C968260B00D1
:10328000FEEC17667199A3496412994446329888F6
:1032900012994426115200FEED1007B1A555114AAE
:1032A00084663151641001FEEE130995A9954BC453
:1032B00012B9412C180985062100FEEF140BD1AD7F
:1032C0003788A54265926022184989062200FEF0DF
:1032D00012CB74B1911AA84231493092120D4400B8
:1032E000FEF1186B75B13788A542659260221849C6
:1032F00089067A4822988801FEF2162B15AD911A9C
:10330000A84231493092120DF49044301103FEF37B
:103310000F05B199930A8506BA44249100FEF40E74
:10332000E6B099932A190C13994402FEF519C715B2
:10333000A6151944D29AC4445294082552315122F8
:1033400013C94C00FEF61DEAF5AD951AA4F2D09013
:103350004633894572895C2297C82962919068A09A
:1033600003FEF719E715A621CA89D29AC4445294DC
:1033700008255231512213C94C00FEF81D0AF6AD42
:10338000A18BEAF2D0904633894572895C2297C8B6
:103390002962919068A003FEF91A0756A5A0494C2E
:1033A00024458950221513253291CC1E22CA8962E8
:1033B00000FEFA1D2A36AD16D26826B1482E914B72
:1033C000E41239452C12120DF4685D549704FEFB8B
:1033D000154715A6A0494C244589502215132532BE
:1033E00091CC04FEFC196AF5AD16D26826B1482EC0
:1033F000914BE41239452C12120D7400FEFF35EF8B
:1034000011BE907091D823068A16A248A22C93A8C8
:10341000908412158A8124918728220989421149B2
:1034200024648A8424A248284A128A48C21EB270A0
:103430005100005F0002020304030504050C00FEB6
:1034400007FE08FF0139028503AC2005006A072149
:1034500007394367A80022079B56275901230B35DC
:1034600042AF1AAA4C69A80A240D4D3E37AF4AE56F
:103470009D54B5230025093D4247CEDC3905260C75
:103480003D422FA798729564540127051957672864
:103490000ACB3E37C514EB9803290BCB3E27C71C3C
:1034A000AB9822002A0A3D42B7AA765ECD082B0AC5
:1034B0002D4637A3386446112C071B3E4F8D042D33
:1034C000060D4E67082E06924267042F0C3D421FE0
:1034D000E58C728D7246003009BC424F45CFA40086
:1034E0003108BB422FC9AE01320A3D426FE58C72F2
:1034F0007B08330C3D42676894B3863A2D00340C48
:103500003D423FCB54A6A1334A00350C3D42E7462D
:1035100023C38C745A00360C3D4257E68C46CA3A97
:103520002D00370D3D4267689433CA196514013880
:103530000B3D426F659D56D66901390C3D426F6562
:103540009D4646394A003A07AA4267C4113B0933EF
:103550003ECF466A24003C07AB4637D5053D081DE3
:103560004A676838043E08AB46275725003F0A3DA6
:10357000426FE536CA7404400C3D426F65355252C5
:1035800023C305410A3D426F653D46B603420C3DEB
:103590004267C42AA659C5A100430C3D426F658D00
:1035A00032CA28A705440D3D4267C42AA698628AFC
:1035B0004301450C3D42E746198D94514643460D63
:1035C0003D42E746198D9451461901470C3D426F23
:1035D000658D328A3B2D0048093D4227DB63643B01
:1035E0004908BB4267C5AE014A0C3D42776794511A
:1035F000466594004B0B3D4227CB54EA14AB1C4C60
:103600000E3D4227A38C32CA28A38C86004D093D6B
:103610004227AF95B43B4E0A3D4227EBA992DC3AD4
:103620004F093D426F65EFB400500D3D4267A4ACB9
:1036300087CA28A38C00510A3D426F6557925105F5
:10364000520B3D4267A4AC872AAB1C530B3D426F23
:10365000650D37D46901540E3D4267C88C32CA28C3
:10366000A38C220055083D4227FB4E0B560A3D42D3
:1036700027BB5399720457093D42277B25D505582E
:103680000A3D4227EB5457B50E590C3D4227EB54E7
:1036900067945146115A0A3D42676894BBD1105B4A
:1036A00008CB3E67C43E075C0D3D4227C38C32CC3D
:1036B00030A30C035D08CB3E67F639025E071D564A
:1036C00037A73A5F060D3A670860069B56271761D1
:1036D0000A2D426FC334741A01620C3D4227A38C39
:1036E00046CAF65000630A2D426F658D725A006417
:1036F0000B3D421F659486B6D308650A2D426FE5DF
:10370000A1325C00660B3D425756796794510667BB
:103710000B3D3A6F653B8D8CD202680B3D4227A36F
:103720008C46CAEE006908BB422F23D91A6A0ACC1C
:103730003A3F63DD9649016B0C3D4227A38CB24CA6
:10374000B3CA016C07BB4247F61A6D0A2D4247B552
:10375000545249156E082D422799DA0E6F092D42F1
:103760006F653B2D00700C3D3A67A46C0F95514678
:1037700000710B3D3A6F683B8D8C320A720B2D4203
:1037800027991A65941100730A2D426F68B8E150A9
:1037900000740C3D4237A338644619652875082D1E
:1037A00042273B950A76092D4227DBA98E0077092F
:1037B0002D42275B49750178092D4227A7BAAA0334
:1037C000790A3D3A27DBA96E23007A082D4267E883
:1037D000F6107B09CB3E37C52AC73A7C06493FE73E
:1037E000017D0ACB3E27C73AC52A027E091D4A2F12
:1037F000AA24130000000004FFFF0000BF00020223
:103800000304030504060A00FE07FE070001420246
:103810009207B320050062072107394367A80022F9
:10382000079B52275901230D3D42AF4C69A86AA856
:10383000322500240B3D4237AF7AA7B42300250B75
:103840003D422FAAEEAA251300260C3D422FA79831
:10385000729564540127051953672808BB423795B0
:1038600075012908BB42279755092A0A2D4627A723
:103870006AA876002B0A2D4637A3386446112C0718
:103880009B3E4F95002D060D4E67082E079B3E2F41
:10389000AD042F0B3D421F6594BB514600300A3DDD
:1038A0004237A7DA4E7504310C3D4237CB9451466E
:1038B00019C521320C3D426FE58CA2CC190D0133A4
:1038C0000C3D42676894B3863A2D00340C3D423F6C
:1038D000CB54A6A1334A00350B3D42E746C9CC483C
:1038E000A705360B3D4257E68C92A9D302370C3D13
:1038F0004267689433CA35CA00380B3D426F659DF4
:1039000056D66901390C3D426F65A95446394A00C3
:103910003A0ABB3E2FAD0CD34A003B09BB3E2FAD4C
:103920000C55093C0ABC423FB6514619053D081DDD
:103930004A676838043E0BBC4227A38C328A6D006C
:103940003F0A3D426FE536CA7404400B3D426F6545
:10395000B99295E102410B3D4237A75A8F9175000C
:10396000420C3D4267C42AA659C5A100430C3D4202
:103970006F658D32CA28A705440D3D4267C42AA64B
:1039800098628A4301450C3D42E746198D945146A1
:1039900043460D3D42E746198D9451461901470CA7
:1039A0003D426F658D328A3B2D0048093D4227DB41
:1039B00063643B4908BB4267C5AE014A0C3D427790
:1039C000679451466594004B0B3D4227CB54EA1453
:1039D000AB1C4C0E3D4227A38C32CA28A38C860018
:1039E0004D0A3D4227EBB592B6034E0A3D4227EB06
:1039F000A992DC3A4F093D426F65EFB400500D3D8E
:103A00004267A4AC87CA28A38C00510A453E6F6563
:103A1000AF6AC300520B3D4267A4AC872AAB1C536C
:103A20000B3D426F650D37D46901540E3D4267C8A6
:103A30008C32CA28A38C220055083D4227FB4E0B2E
:103A4000560B3D4227DBA94C31E508570A3D42277A
:103A5000BB924A7700580A3D4227EB5457B50E599E
:103A60000C3D4227EB5467945146115A0A3D426778
:103A70006894BBD1105B08BB4267C4CE015C0D3DAE
:103A80004227A30C33CC30C38C025D08BB4267765F
:103A90008E005E071D5237A73A5F060D3E6708602D
:103AA00006125B2706610A2D426FC334741A016245
:103AB0000C3D4227A38C92A9A75200630A2D426FA6
:103AC000658D725A00640B3D421F6594CC2D950A9A
:103AD000650A2D426FE531325C00660C3D42575657
:103AE00079C48C32CA00670C3D3A6F689D46463AED
:103AF0002D00680B3D4227A38C92A9ED006908BBFD
:103B0000422F23D91A6A0BCC3A3F635D4B991400BC
:103B10006B0C3D4227A38CB24CB3CA016C07BB426D
:103B200047F61A6D0A2D4247B5545249076E082DC3
:103B3000422799DA0E6F092D426F653B2D00700CFC
:103B40003D3A27997A2A95514600710B3D3ACFDCD0
:103B500052A98C320A720B2D4227991A65941100D2
:103B6000730A2D426F65B8E15000740D3D422FA3DA
:103B70003C624619C5A80075082D42273B950A7678
:103B80000A2D4227EB54A61C0177092D42275B49D9
:103B9000750178092D4227A7BAAA03790B3D3A2768
:103BA0009B4A65A4D3027A082D4267E8F6107B0B86
:103BB000BC42576594348A19097C063943E7087D6D
:103BC0000CBC4247A39891CA2849007E091D522F78
:103BD000AA241300A005006207A1073943270D019D
:103BE000A20C3D3E370F15534C79C408A30B3D4240
:103BF00057567967149502A40A2D4227A799E2CA5D
:103C000001A50D453E27EB54C72133CA2802A6065D
:103C10003943670DA70B453E6F65343B374A0BA808
:103C2000068B5E2705A90C3D426F6595A64A3A2D85
:103C300000AA0AB4466F44A56A3402AB0B2E42B701
:103C40008A29E6986300AC07944A67E400AD068CC5
:103C50004E6704AE0B3D426FE591E6D46901AF06B5
:103C60000D5E6708B0069B52AF0BB10B354237A310
:103C70003864467108B208AC4E4FC5E608B30AACCA
:103C80004E67A3A4D14800B406125B4F01B50A35B4
:103C90003E27DB53A98C00B60E3D426F8C34525246
:103CA00031C5145300B705094F27B806123B4F0121
:103CB000B907AB4E2FC96ABA0AB4464F4599341CAE
:103CC00001BB0C2E4227E698638A294600BC104EA1
:103CD0003E2F230D33CC6866A4531C1906BD104E2D
:103CE0003E2F230D33CC686554C38C321ABE0E4D63
:103CF0003E47C39C619459A634320ABF0A3D4237FD
:103D0000D319E5D602C00C45422FC3BCB21E23EB2B
:103D100000C10B4542BF5E598F917500C20C4542F0
:103D200037A7B8B21E23EB00C30C45422F2AB9B205
:103D30001E23EB00C40B4542AFA656D663641DC5D7
:103D40000C454237A7B8B21E23EB00C60B3E4277A4
:103D5000A4B239466C0EC70D4D3A6F658D32CA2834
:103D6000A75D03C80E45422F8F8D321A29A38C867A
:103D700000C90E45423F8D8D321A29A38C8600CA98
:103D80000E4542378E8D321A29A38C8600CB0E4504
:103D900042AF1A1B65345246190D01CC09C34227A4
:103DA000A7155B03CD09C34237A5155B03CE09C335
:103DB00042AF1A29B606CF09C34227E5155B03D0E7
:103DC0000D3D4267C42A8E54A6381400D10B4542DB
:103DD00037754F95E4D601D20B45422FC3BCB23B99
:103DE0002D00D30A4542BF5ED99D1600D40B454233
:103DF00037A7B8B23B2D00D50A454237355776A7CD
:103E000005D60A4542AFA65676A705D7092D422703
:103E1000A7BAAA03D80B3D426FC52BCD991600D97E
:103E20000A45422FC3DA3B2D00DA094542BFCCDEFA
:103E30006901DB0B454237A78CB33B2D00DC0A45FB
:103E400042AFC6D93B2D00DD0C4542BFCC3AD51957
:103E5000651401DE0E3D4227A391F25019659411BD
:103E600000DF0B3D426F6599CA2A2B05E00C4542E5
:103E70002FC34C6E98864E23E10B4542BF26374C2C
:103E800043A711E20C454237A74C6D98864E23E3B9
:103E90000C454237B5A90DD3D06904E40B3D42AFC0
:103EA000A6364C43A711E50C454237A79C374C4337
:103EB000A711E60B2E426F64548D998700E70B3DE6
:103EC0003A6F658D72DA3500E80C45422FC34CAE6F
:103ED0003C46860BE90B4542BF26571E23C305EA25
:103EE0000C454237A74CAD3C46860BEB0B3D42AF31
:103EF000A6561E23C305EC09C3422767245B03EDC6
:103F000008C342AF86B235EE08C342AF2D5B03EF64
:103F100008BB422765D91AF00B3D424743B9B29D11
:103F20001600F10A454237B57132B51DF20B454214
:103F30002FC34CAE6CA705F30A4542BF2657B6D334
:103F400002F40B454237A74CAD6CA705F50B454273
:103F500037B5A995EDB400F60A3D42AFA656B6D3E3
:103F600002F7092D463753435311F80A2D426FC803
:103F700095E65000F90B45422FC34C65A75201FA54
:103F80000A4542BFA6B253A900FB0B454237A78C96
:103F9000B353A900FC0A3D42AFC6D9A95400FD0C99
:103FA0004D3ABFCCA65219E9B400FE0D453A27A3FD
:103FB00091B23D54461901FF0D4D3AAFC6D9542A6E
:103FC000239D160000000004FFFF00001300030300
:103FD0000505040506101000FE0AFE0BFF019D03F7
:103FE000370F18200600A047012107413144711105
:103FF000220885284611D316230D46254495A74B44
:1040000028CB294F00241247254417AC8442A2E054
:10401000781812A5146300251647254423134592EA
:10402000222149341C8D8822A148924C0226144733
:104030002544354B8AA5048591902C228CC444A339
:1040400000270681304641280D83ED43150945427E
:10405000790BC502290E83E943110BC54279094545
:1040600042002A0EE764449794926D16C994160391
:104070002B0BE76444174EBB85D3002C0982AC435D
:10408000218948002D06242845412E06422C444112
:104090002F0D4625449B981A8C0653A300301446D6
:1040A0002544250B4582B25144129A0923A1980850
:1040B00000310B45294415134582F954320E46252B
:1040C0004443090AA3315930356A33104625444325
:1040D000090AA3A17154288C5000341146254419B3
:1040E00094454229B1482C628CA600350E462544E1
:1040F000714D2D47A3C2080500360F462544350AE9
:1041000046A395A0C6080500370C462544614D8C92
:1041100026463301380F46254443092A4628418D57
:10412000110A00390E46254443092A46AA19432399
:10413000003A07E26C4441263B0A22ED4341964493
:1041400024003C0925294419CB35073D08A6A44481
:104150006147343E0A25254411CD2D47003F0F46C7
:10416000254443090AA3C1D438301A024014462515
:1041700044358A892292C82424094942A2499800D8
:10418000410E462544250B65090A0F418D01420D5C
:1041900046254451092A5A821A2D00430D462544CA
:1041A0004309AAE6288C5000440D462544418A451F
:1041B00082FA162101450B462544714DAD44B31AD0
:1041C000460B462544714DAD447305470E462544C4
:1041D0004309AA2611D5249300480B46254411D43F
:1041E0007808EA18490A452944510AE6A7024A0E06
:1041F000472544550CE729168AC566004B1346250A
:1042000044119445422931A130120BA54582014C3D
:104210000946254411CD5F0D4D0D46254411148EE0
:1042200048131D35064E12462544119CCD242149C4
:1042300048141145648B014F0C4625444309EAC7D5
:10424000080500500C46254451092A5AA2B90251CA
:104250001767E543430A4682916024180946829114
:1042600088242212D105521046254451092A5A4267
:1042700069915824280C530D46254443092A6B1490
:10428000462800540A472544710BE76F00550B463A
:10429000254411D41F231400561347254411558D6E
:1042A000C442B1502C251889866300570D46254419
:1042B00011D445CB883414065811462544111446B0
:1042C00042D984B25096A030005910472544119528
:1042D0004662A1584A349C1B005A0B462544614D46
:1042E000CC6BD4005B0983F14341CA3F0D5C0D46A2
:1042F0002544110DA786A3E1D4005D0983E5433170
:10430000CA3F115E0A666446250B4582015F062797
:10431000E44371600763A846114B610E06254443D0
:104320000946234635C92400620F66254411CD3263
:10433000910935CE241300630C06254443094A73C2
:104340008C5000640D6625449B65221BEA26990467
:10435000650E06254443090A0FD1C4080500660C02
:10436000652544270A2695827902671466A5431BB2
:1043700099C822B1482C348B5282C2080500680CBF
:1043800066254411CD329109F518690B652944154C
:104390008C4384F9546A0DA5A543990E11E6A32810
:1043A00024026B1266254411CD1609A5C4849158C8
:1043B000282D120C6C0965294423CC3F156D140778
:1043C000254431918442A29028240A8942A290284F
:1043D000016E0B0625441199C8847A0C6F0B0625D3
:1043E000444309EA314201700F46A5431199C8843C
:1043F0001A679249340A710D46A54333910D75939E
:104400004CA209720C0625441199C884D25C017330
:104410000C06254443098A35462800740B4525447B
:10442000154C2A057315750B06254411D437C9247C
:1044300000760D06254411548C84F226140177135E
:104440000725441115854421514814128544292A11
:104450000078100625441114464231A12C14090A93
:1044600003790E46A54311D431125289A650007A21
:104470000A062544610DE6D5007B0FA4A9432589D2
:104480000563A1C4B4502C287C07C1B143F1007D61
:1044900010A4A943218C8562C1A4B4602C22027EA1
:1044A0000B6724462313856412007F2510A2831115
:1044B000C9EF48729CE448234A6C14094643114AE8
:1044C0006C14094647143B4E729CE44891FC0080F2
:1044D0002710A28311C9EF48729CE44833D16414B9
:1044E000094542A11125440C454289A1C8448E9337
:1044F0001C273952243F812810A28311C9EF48722A
:104500009CE44849A2C928128A8442945064291222
:104510008A444321514C8E931C273952243F8225D3
:1045200010A28311C9EF48729CE4484B2152241415
:104530000985964E916028340A86E638C97192231F
:1045400045F203832610A28311C9EF48729CE44808
:1045500029A3502529124A918C4E91502494651418
:104560009AE324C7498E14C90F842A10A28311C963
:10457000EF48729CE4489350642409499282A188D0
:10458000241491845242B149283292E324C7498EBF
:1045900014C90F852510A28311C9EF48729CE44805
:1045A00029941825311A915062A348301A8A50EC88
:1045B00038C971922345F203862210A28311C9EFF4
:1045C00048729CE468A39164981453B20523A1D067
:1045D00052688E931C273952243F872310A28311DF
:1045E000C9EF48729CE448A4916498142289EE9122
:1045F0005088320ACD7192E324478AE40788231059
:10460000A28311C9EF48729CE44829A3C928332921
:10461000261AA5C6424923394E729CE44891FC00F3
:10462000892410A28311C9EF48729CE468A1C88A4A
:1046300024941824052392506252923A4E729CE4BC
:104640004891FC008A2510A28311C9EF48729CE4AE
:1046500048B1C848320BA5C642B190242D180D862A
:10466000D47192E324478AE4078B2410A28311C9F2
:10467000EF48729CE448A3E06414098642A3608872
:1046800098944899C87192E324478AE4078C2410CF
:10469000A28311C9EF48729CE448A360881409867C
:1046A00042A3608898944892C87192E324478AE4B0
:1046B000078D2210A28311C9EF48729CE4A8B3A011
:1046C0002C940E9A056591581C94518E931C273991
:1046D00052243F8E2110A28311C9EF48729CE468D6
:1046E000A3C9623CA645168C4447233B4E729CE40A
:1046F0004891FC008F1F10A28311C9EF48729CE4FF
:1047000068A3C9623CA645164CDA22C7498E931CA1
:1047100029921F902510A28311C9EF48729CE4488A
:10472000B39129128C862251C928120FCD26133934
:104730004E729CE44891FC00912410A28311C9EFB1
:1047400048729CE448A3B4C828120AC9466991611A
:1047500028962AABE324C7498E14C90F922410A2CD
:104760008311C9EF48729CE448A394A54828181AFD
:10477000254986A148342AB2E324C7498E14C90FBB
:10478000932410A28311C9EF48729CE46893D1640A
:104790001A8ACB622259281A9B8546729CE438C932
:1047A0009122F901942110A28311C9EF48729CE46F
:1047B00068A349889894183C26C54693D01C27398D
:1047C0004E72A4487E952510A28311C9EF48729CB1
:1047D000E46829B1904425168DE449128BA8C622BD
:1047E000B1901C27394E72A4487E962510A28311E1
:1047F000C9EF48729CE468939964188A8462A29114
:104800002D120C8546C1D01C27394E72A4487E97C4
:104810002410A28311C9EF48729CE448949964184B
:104820008A844294D13129440986E638C971922399
:1048300045F203982510A28311C9EF48729CE468E1
:1048400023993114098B9224B24828189A89267228
:104850009CE438C99122F901992610A28311C9EF6D
:1048600048729CE468A29184168C254524B1512499
:104870001489856423C91C27394E72A4487E9A2363
:1048800010A28311C9EF48729CE468A3C962342A5C
:104890008A86649168703699C87192E324478AE4E5
:1048A000079B2210A28311C9EF48729CE468A3C938
:1048B0006234189585E6A1E8643491E324C7498EF3
:1048C00014C90F9C2210A28311C9EF48729CE4A85E
:1048D0009392281C070983D2581C320CCA7192E3A8
:1048E00024478AE4079D2410A28311C9EF48729CD3
:1048F000E468B29129128C8642A2D82818098B66E6
:10490000759CE438C99122F9019E2410A28311C933
:10491000EF48729CE488A3584894A23C8A24898278
:10492000B170301692E324C7498E14C90F9F251029
:10493000A28311C9EF48729CE468A29929128A44A3
:1049400029A3D828128C8622D13A4E729CE4489131
:10495000FC00A00600A04701A1074131442139A273
:1049600013472544170E564221512C140BA514C38E
:104970003100A30E472544370B2716C3A915610044
:10498000A410066544118C905282C248284409063E
:10499000A510472544118DC452A2B15BEC164E03FD
:1049A000A6074131444122A71046254443098A29DC
:1049B0004161842C8C5000A808442847111205A995
:1049C00018482144450B46422AA1882428094A4216
:1049D000119128128C9100AA0BE56845338DD422E1
:1049E000D402AB0F262544954B284B2816CA16CA6D
:1049F00000AC0886244461CD00AD2510A28311C906
:104A0000EF4872B44948460C451245A4902C124A0E
:104A10001C6592E32447A7CA71922345F203AE199D
:104A2000482144450B46222349282209452423498D
:104A3000922414498C9100AF0626E44661B00B84A1
:104A4000A845230989221200B10C276544174EBBE3
:104A500085D36107B20DE5244533890543A258B0DB
:104A600000B30DE524453389052353596402B40886
:104A700063AC46154902B51648A143130C0543C162
:104A80005030140C05434A1151241C07B61967E530
:104A90004373984428114A68128C0423C148301289
:104AA0008C04231100B706422C4541B80743A843A4
:104AB0003501B90BE5244515134582990ABA0BE572
:104AC00068453389A945C605BB1026254411CA1679
:104AD000CA168A84B2843201BC13462544139B450E
:104AE0004229B14830942249111103BD144625448E
:104AF000139B454229B148301293A4C922A101BE9B
:104B000013462544210BA584622249309422491181
:104B10001103BF0F462544158D03A3C1D4A0304215
:104B200001C011C625442396A3C8425982C24350EE
:104B30006300C111C625442792A3C9425982C243CA
:104B4000506300C212C62544250BC55164A12C41F7
:104B5000E121A83100C311C625442352479185B2F3
:104B6000048587A0C600C411C6254413CA8E220B33
:104B700065090A0F418D01C512C62544250BC5E400
:104B80003059284B5078086A0CC6154725445549BA
:104B90000BC542B14328168A8562A1588800C70F09
:104BA00086A5434309AAE6288C10633200C80EC6C6
:104BB0002544239683AFA995685603C90EC625449C
:104BC0002792A35C532BD1AC06CA0FC62544250BF4
:104BD000C5C1D7D44A34AB01CB0EC6254413CA0E87
:104BE000BEA656A2590DCC0CC529442395C34AC173
:104BF000FC54CD0CC529442591834BC1FC54CE0DEA
:104C0000C52944234A079682F9A900CF0EC5294435
:104C1000118A84E2C052303F15D015472144434BDE
:104C20000A4682A54830128C0423B1100900D11520
:104C3000C6254423520707673349481212454411D9
:104C4000D96200D20EC625442396C32941FD18A17E
:104C500000D30EC625442792235182FA314201D453
:104C60000FC62544250BC5E194A07E8C5000D50EBF
:104C7000C625442352875382FA314201D60EC625F7
:104C80004413CA0EA704F5638402D70DA6A44411E9
:104C90008C8462B2502418D81786E5431B99C82229
:104CA000B1514414918424A1592426994401D90D69
:104CB000C6254423968383FA638402DA0EC625440C
:104CC0002792A304F5C7080500DB0EC62544250B73
:104CD000C5C141FD314201DC0EC6254413CA0E0E8A
:104CE000EA8F110A00DD12C72544A78E1895466287
:104CF000A1584A349C1B00DE10662544118D926237
:104D000091A05A84144D05DF13462544338A456229
:104D100091508A281609AA845400E010862544235D
:104D200096C329C168C4A8269904E11086254427A2
:104D300092235182D188514D3209E21186254425B2
:104D40000BC5E19460346254934C02E31086254411
:104D50002352875382D188514D3209E4108625446D
:104D600013CA0EA704A311A39A6412E512A6254440
:104D7000250BC5E4289460346254934C02E6110775
:104D800025445309A58522A75828164AA900E70EED
:104D900046A54343094A738C10633200E810862508
:104DA000442396C32941E1219A18A100E9108625E0
:104DB000442792235182C24334314201EA118625AD
:104DC00044250BC5E194A0F0104D8C5000EB1086EB
:104DD000254413CA0EA704858768628402EC0B85FC
:104DE000294421954385F954ED0B8529442591C328
:104DF00085F954EE0C852944234A870AF3A900EF6C
:104E00000D852944118A84E250613E15F0118625F2
:104E100044238AC922A1583462D4314201F10E865A
:104E20002544235207472632A11E03F20E8625444D
:104E30002396C329413D462800F30E862544279238
:104E40002351827A8C5000F40F862544250BC5E14E
:104E500094A01E231400F50E862544235287538206
:104E60007A8C5000F60E86254413CA0EA704F51856
:104E7000A100F70BE664442587DBE12200F8144625
:104E8000E5431BA1C44611514412928466114A1491
:104E900000F90D86254423968383FA269904FA0D9A
:104EA0008625442792A304F54D3209FB0E8625443E
:104EB000250BC5C1417D934C02FC0D86254413CAC8
:104EC0000E0EEA9B6412FD11C6A5432792A304753A
:104ED0008C8454A2291400FE11A6A54311CD329151
:104EE0000935CE2493681400FF11C6A54313CA0EDA
:104EF0000EEA1809A9445328000000000C23F0070B
:104F00001125DA0545FFFF20A0104625444389A658
:104F1000546291202D1A2520A11446254417899802
:104F20002292BC484292D048328B0120A2154625DD
:104F300044358A09A591C84414894582A2D0040049
:104F400020A30F482144658AA7D7E251633C0A2079
:104F5000A410472544370B076D415B385A110620D2
:104F6000A5164725441DA6484212914414128524D3
:104F7000A24968120A20A617472544130BC542A26E
:104F8000C825CB25240A8962A158040020A7174709
:104F900025442189456411CB48224A490A8942A205
:104FA00090680220A819472544310CC542919168A8
:104FB000128A24454291504814124D0020A91647E8
:104FC0002544130BC542B1C825CB4549228A8562C9
:104FD000110020AA15072144419245242992144921
:104FE0008A24451293500020AB19A7A5431BA48621
:104FF00026699260241809468291986812875800A1
:1050000020AC12462544270B4582A560291A0EC5FF
:10501000240020AD14472144138CC4426991A0F0B0
:1050200092188A25050320AE0F472544710B874748
:10503000E3D1381B0020AF1987A543310CC542B11D
:10504000502C140B4D42129144349984930020B09B
:105050001786A543338A4562915828121445524455
:10506000119930130020B114882144530B460E913E
:1050700060E41009866AF19C0120B21CC6A54315A4
:105080000D52922421492C128B4426214948129119
:105090004C42D1180020B318482144270D0543A1E4
:1050A000432418394482A16028180A460020B4130A
:1050B000482144450BC6530E21E121120FC648007A
:1050C00020B51BC6A543150D52922421492C128BE5
:1050D000C422B14848128AD0A2310020B618472510
:1050E000449318094662A64830128C0423C148280C
:1050F00012920020B71887A143450A4682A1B83C06
:10510000140949522429974C91240020B80B0721F7
:105110004471BF85730320B91888F1837188C92150
:10512000A143341CA3C62171481C1287840020BAF5
:1051300013672144154E092A4612D524B150DA08C6
:105140000020BB14472144138D046D29C1489649A2
:105150002C1C8B8D0020BC10E52444158C4D522452
:10516000114944920020BD11462544438A4562916D
:105170009829588A260220BE12872144158955B2E3
:1051800048522429E2EC890720BF1CC7A143150916
:105190004642A660241809464AC14830128C046F62
:1051A00091602404210317C72144138D0423D138AF
:1051B00029180946C2394682210A00210912C7214D
:1051C00044138D0423D1B0259C5C0AE70A212611E3
:1051D0004725445389EA1A89A50423A1C9002190CF
:1051E0000CA7A444158D5EE2410021910DC5A94391
:1051F000159B640AE63F0121920BA7A044198F5C1E
:10520000930021930EC5294415CC7F8AA4CC42007B
:1052100021940FA8A04495168C1C22C15828042163
:105220009510852944159B640AE62992320B0121C9
:10523000960DC6E44441124662A1700221970EC643
:10524000E4444594454229C1280021980DC6E44410
:10525000114E8A4582220221990EC6A4441B8C84D9
:105260005262421200219A12272544190E4662A169
:10527000D025148C849300219B11272144154E09BD
:105280008622A7B448301C04219C12AEE884310762
:10529000CA4791682C188B06E700219D12AEE08466
:1052A0000F1CCD25B168441A8BC38600219E0FA820
:1052B000A04495168A1D22A1682804219F10C5A923
:1052C00043159B648A4D3205F3130021A00FA8A05B
:1052D00044951A8A1C62A158280421A111E5E943CA
:1052E00015CC9F2229B3502465160221A20CA7A435
:1052F00044158BC422B51C21A30EA7A04411CB5684
:10530000894562210021A40CA6A4449512BBC44285
:105310000921A50D852944159B640AE6A70221A64B
:105320000EA6A444114A8BDC22A1100021A70E85F1
:105330002944510AE6A748CA2C0421A8108529440B
:10534000159B640AE6144999850A21A90DC7A4444E
:105350001B4B099EE2410021AA0EC7A444138D8570
:1053600082216B120021AB0FC7A4441B8B648A9C63
:105370001223210021AC10C7A444138D24454221DF
:10538000535A240421AD10A8A04495169144469385
:10539000602C140221AE15282144198F4664A148BF
:1053A000E41009456211713C0621AF1386254411B2
:1053B000CD9422928452D32249C3100021B00C25EF
:1053C000A543158B91B2047321B10E25A943150D88
:1053D000952249C18C0021B20E85A544999F22498E
:1053E000A568080021B30E85A94411CC2FA1245A29
:1053F000120021B40DA82044618F4612C72100215C
:10540000B50E85A544999F22499668080021B60FDC
:10541000A8E044470B4A9222B350140021B70FA8CA
:10542000E044430B865222B271080021B80E06E513
:105430004461260923B150380121B914662544116D
:1054400089090FC1481C1A091E82B2480021BA0FEF
:10545000C664441321494211A130420121BB0FC649
:1054600064443109A98484C208050021D00BA6A494
:1054700044153497620021D11A852944158B445470
:105480009222A14828128A8422A14828128A440024
:1054900021D20BA6A444172A1B430021D319852926
:1054A00044931409454291502414094542915024D3
:1054B000A292160221D40EA8A044956609476CA1B9
:1054C000100021D518852944158B44549222A148F7
:1054D00028128A84221195B4100021D610C6E44403
:1054E000418AC424A1486224180121D70FC6E4448C
:1054F000458B8422921449300821D80FC6E4441306
:105500008C0423491159244421D90FC6E44499221B
:105510004991842231120021E60FE8604417964633
:10552000CC9148491E0421E719872544178DC452A0
:105530009622C14830128C0423C14830121C01212C
:10554000E80FE86044191755922D51710C0021E9BC
:105550001A872544358C0423C14830128C0423C19A
:1055600048683289A544630023E9152B2984110D6D
:10557000AA2DB1540E22CA6C249445830023EA1646
:105580002B2984198D0945B309E920A99048B399BD
:1055900050180D23EB1269ED83199FD62E07393869
:1055A0003EAD5D0E0223EC1369ED837190DCAAF32E
:1055B00038F820B955E7410023ED132D2584118DCE
:1055C0000E85B459896469625B544D23EE162D250E
:1055D00084118D0A85B3198954A99848B519513891
:1055E0004D23EF172A2D84110D0D43B45029640962
:1055F0009542B4D030240D0523F020CBE9831B164F
:10560000852492CA241A494B090685416150161512
:105610008523F15834785B0123F11EAB29842907D7
:10562000C921155174124B0906854161500E9283B0
:1056300022F158345A0323F2196B2984574D8B47B2
:1056400042615954189483E4A0483C168DD6002337
:10565000F322ADE5837130C583F16028128A4A22B6
:1056600072891C14898324F2685AA2244518C9E956
:105670006023F41066F1831B948D28074A893694C1
:105680000623F51166F1831115CE48950385341371
:10569000460123F60ECBA8841B07CDABB783E440AD
:1056A00023F70FCBA88471A01C64D7FA1C14052320
:1056B000F80A66358421E27F1223F90A4A2D84F123
:1056C000FF0F0223FA104A2D84653B440EFF8172BE
:1056D00088990025800908A145F17F08258108489F
:1056E000A043F12025820988A043F1030125830905
:1056F000C8A043F10F0625840908A143F17F0825BE
:10570000850A48A143F1FF610025860A88A143F17B
:10571000FF8702258709C8A143F1FF3F25880A08B2
:10572000A243F1FFFF2025890907A243F1FF3F258E
:105730008A0A06A243F1FF8702258B0A05A243F1DC
:10574000FF6100258C0904A243F17F08258D090320
:10575000A243F10F06258E0902A243F10301258F12
:105760000801A243F12025900904B243F17F0825E6
:10577000911C07A243110BC664C1982C18930563B2
:10578000B2604C168CC9823159301625922608A277
:105790004311C9144991648AA4483245522499227C
:1057A00029924C911449A6488A245324459229925F
:1057B0000125932308A243319944269549645299BF
:1057C0004426954964529944269549645299442641
:1057D00095496422259408482047F1202595080121
:1057E000BE43F12025960904A143F1030125970941
:1057F00004B143F1030125980904A145F1030125F2
:10580000990D08A24341E48F87FF2100259A0C08D7
:10581000A24341E4EF10227F259B0C08A243F17FB5
:1058200028F24700259C0B08A243F17F08F20F25C0
:105830009D0904B145F10301259E0C08A243C91F2F
:105840000F41FE08259F0C08A243C91F0FFF43010B
:1058500025A008E72444F11F25A10BE764447188C3
:10586000EA7A0825A20CE764445389EA1AA90025BC
:10587000A310E7644471884A26928964223D042576
:10588000A40EE7644471881EA407E9210025A5132E
:10589000E764447188A448522429921449CA21001B
:1058A00025A611E764447188A41C24290749CA214C
:1058B0000025A712E7644471888446A15144121A56
:1058C000850E0125A812E7644471104544214988DA
:1058D0001411850E0125A912E764447188A44C2295
:1058E0009394496492720825AA0884A844F120255B
:1058F000AB0984284551121525AC08872445F103CE
:1059000025AD0B87244571884A0F0125AE08E4A810
:1059100044F10325AF0AE4A84451D2A90025B009F7
:1059200068204565710225B10B6820456509464C24
:105930000025B20CC6E44425949128870225B30CB7
:10594000C6E444259485B2040F25B40966E44425D1
:10595000A31825B50A66E444250B450C25B60DC6EB
:10596000A44421241D0E22210025B70EC6A44421E3
:105970008C88622B22210025B80A84E844213A8CC5
:105980000025B90B84E844218A4C480025BA0CA6AE
:10599000A44421241D46420025BB0EA6A444218C0C
:1059A00088621391100025BC0DC6E44471A890686C
:1059B00042110025BD0DC6E444718C84B209450036
:1059C00025BE0A66E44461A1890025BF0B66E44454
:1059D0006109C5440025C00CC6A444293A1C4444AE
:1059E0000125C10EC6A4442992CC66214950002548
:1059F000C20984E84475180925C30A84E844459916
:105A0000840425C40BA6A444293A8C880225C50D1C
:105A1000A6A4442992CC4292A00025C60EE7A44435
:105A2000179D552EB5690C0025C710E7A444178DA6
:105A3000C452A291584A340625C811E7A444178DD0
:105A4000C4225926B945A2310025C911E7A444351D
:105A50004B8988241391242D360225CA12466544A9
:105A6000259485B20485915036A1080025CB0FE717
:105A7000A444354B89AA4662B1110025CC10E7A495
:105A800044158983A2F1681C14090125CD11E7A4EE
:105A900044359348B248522459D4460025CE11E7E4
:105AA000A444354B09852429A294586C0425CF0DB4
:105AB000E7A44435AB1C5E6A230025D00FE7A4445D
:105AC000351345666C11516C0425D10FE7A444359C
:105AD0000B49626C93906C0425D20FE7A444354BBC
