:020000040000FA
:100000000C941A030C944B030C944B030C944B0369
:100010000C944B030C944B030C944B030C944B0328
:100020000C944B030C944B030C944B030C944B0318
:100030000C944B030C944B030C944B030C944B0308
:100040000C944B030C944B030C944B030C944B03F8
:100050000C944B030C944B030C944B030C943D0AEF
:100060000C944B030C944B030C944B030C944B03D8
:100070000C944B030C944B030C944B030C944B03C8
:100080000C944B030C944B030C944B030C944B03B8
:100090000C944B030C944B030C944B030C944B03A8
:1000A0000C944B030C944B030C944B030C944B0398
:1000B0000C944B030C944B030C944B030C944B0388
:1000C0000C944B030C944B030C944B030C9482073D
:1000D0000C94AB050C946C030C940A040C94E00390
:1000E0000C94F8030C941C040C9420040C94390A0E
:1000F0000C94BA040C9412090C94A0070C943A0ABC
:100100000C946D060C94EE030C94AD0B0C9400044F
:100110000C94F2030C9406040C944B070C94800787
:100120000C947D070C9471070C940E040C946507D5
:100130000C944A040C94E4030C9452060C94C903E6
:100140000C94E8030C9414040C94FC030C94180411
:100150000C944B040C94CE03FFD0FFE0FFCFFF6460
:10016000FFD1FF32380C060201FF64FFD0FFFE0012
:1001700000000A0B0C000000000000080405060047
:10018000000000000000000000000000000000006F
:10019000000000000000000000000000000000005F
:1001A0000000000003FFFFFFFFFFFFFFFFFFFFFF57
:1001B000FFFFFFFFFFFFFFFFFFFFFFFFFFFFFFFF4F
:1001C000AFFBFFFFFFFFFF7F0040FFFFFFFF7F0050
:1001D0000000FCFFFFFF01401144F4FFFF7F000C13
:1001E0002242C0FFFF1F0094434484FFFF07001812
:1001F000464404F4FF036038F204C8C0FF01C04164
:1002000086480004FF01006304404A00FC000060CF
:10021000C80A8400F0000002AC4C0004E0000000BA
:1002200088480004C0000000000044008000000076
:10023000000000008000000000000000000000003E
:1002400000000000000000000000000000000000AE
:10025000000000000000000000000000000000009E
:10026000000000000000000000000000000000008E
:10027000000000000000000000000000000000007E
:100280000000000000010000000000000007000066
:1002900000000000001E000000000000007E0000C2
:1002A0000000000000780F400000000000F9FFE1AE
:1002B0001000000080FD7E7B1D090F01F0FFFDB5E1
:1002C000AC593F4255EFEF7B8E723ED767F9AFFED8
:1002D0001C797A055DFFBFFBD7F8F90A7A7F5EFFCC
:1002E0008FE2B954ECF7EBFF65F5AE0A96F7E9FE3D
:1002F0006FEA5555E4EEFAFF7FEAB72A603F5DFDED
:10030000FFEE6E49C03FEDFFFFFD5F55C02BBBAA5E
:10031000FFDFABA280C5A7A2FEFF2648808B5E85CB
:10032000FEFF858080C6EBAAFF7F05A0804DEFBF52
:10033000FEFF158400F7FDFFFFBFEA8900C2FFAB97
:10034000FFFFFF3701F5FFAAFF5F55AD00E3DF02B6
:10035000FE5715A901F9DFE0FF0F005401F1DF831B
:10036000FEAB066101F8AFE1FD0705D302F0FF6BBC
:10037000FD2D064701F8D76FF782845103F8FFDFA0
:10038000DE2D544501F8DFBF7D85A8AA02F8FF7F66
:10039000FB2AE9AA02F8FFDFDF4A54A502F4FFFFB7
:1003A000FE4BD55501F8FFFBDB2A69D702F8FFDFCA
:1003B000FF25D55E01F8FFFFFB4BAA7503F8FFFF91
:1003C0006F976A6F01F9FFFFFA25DADA02FBFFFF88
:1003D000FF4FB4BB01FBFFFFFB2BDDD604FBFFFF90
:1003E000FF2FF9BE09FFFFFFFF5FFE6B05FBFFFF5D
:1003F000FFF7FCDF85FBFFFFFFEFFBBB02F0FFFF1A
:10040000FF57FF6F01F8FFFFFFD7FEBF00F0FFFFB0
:10041000FF97FEEF00F0FFFFFFA1FF5F08F0FFFF77
:10042000FF2BFC7B89F0FFFFD585FAAF02F0FFFFC1
:100430005F2DF07F41E0FFDFBBABF25764E0FFFFD1
:10044000FFFFF25F08E0FFFB7F57F5358CE0FFC34D
:10045000FFFFE82F8CC0FFD7FF2FF88B91C0FFAFB5
:10046000FF3FF01F7380FFBFFE0FFE423180FFBFD2
:10047000FD57E85774C0FFFF3689DAAAC680FFFF30
:100480007F57D5438E04FFFFDFAD7601AA01FFFF42
:10049000FFB7DA511081FFFFFFDF2AA1AA83FFFF18
:1004A0007FBBB6C06282FFFFDFEFAA4045C2FFFFFD
:1004B000FFDE5B8088C1FFFFFF7FA6409AC1FFFF80
:1004C000FFEF558037E1FFFFFF5D250476E1FFFF79
:1004D000FFBFD4406CE0FFFFFFAB6802A2F0FFFF5C
:1004E000FF97620247F0FFFFFF5679107EF0FFFF93
:1004F000FF57F2F77AF0FFFFEF2AFC8AF3F8FFFFCD
:10050000DF57FD02FEFCFFFF7695FE287EF9FFFF18
:100510006FD7FF82FAF7FFFFFFFFFF00FEFFFFFF2D
:10052000FFFFFF00F8F7FFFFFFFFFF0304FFFFFFE0
:10053000FFFFFF07E8FFFFFFFFFFFFDFFBFFFFFFFE
:10054000FFFFFF5FF6FFFFFFFFFFFFFFBDFFF5FFB0
:10055000EE1A9EFFFFFFF3FF44101CFFEFFF83FE28
:1005600044D20DFF5FFF03E4010A18FEFF7F21F173
:1005700011120CFEFF3F23E0018B0CFCFFFF03F187
:1005800011C960FCFFFF83F33993E1FCFF7FC4F9DD
:10059000FFFFFFFFFF7FD6F8FFFFFFFFFFFFCCFF4E
:1005A000FFFFFFFFFF00002200250028002B002E88
:1005B000003100340000002100240027002A002D13
:1005C000003000330005050505050505050202029A
:1005D00002020202020707040404040404040407DC
:1005E00007030303030303030307010101010101DF
:1005F00001010606060606060606070102040810A3
:1006000020408001020408102040800810010204EC
:1006100008102040800102010204081020408004DC
:1006200080402010080402010102040810204080CC
:100630002000AD0B11241FBECFEFD1E2DEBFCDBF36
:1006400000E00CBF12E0A0E0B2E0E6E6F8E100E076
:100650000BBF02C007900D92A832B107D9F724E072
:10066000A8E2B2E001C01D92A838B207E1F713E09A
:10067000CAE1D3E000E006C021970109802FFE0106
:100680000E94290CC931D10780E00807A9F70E9410
:10069000870A0C94310C0C94000090E0FC01E550AA
:1006A000FA4F24918B539A4FFC018491882399F03F
:1006B00090E0880F991FFC01EB54FA4FA591B4917B
:1006C000FC01EB55FA4F859194918FB7F894EC911A
:1006D000E22BEC938FBF0895AF92BF92CF92DF923F
:1006E000EF92FF920F931F93CF93DF936C017B01E7
:1006F0008B01040F151FEB015E01AE18BF08C01778
:10070000D10759F06991D601ED91FC910190F081EA
:10071000E02DC6011995892B79F7C501DF91CF919D
:100720001F910F91FF90EF90DF90CF90BF90AF900F
:100730000895282F30E0F901E159FE4F9491F90115
:10074000E550FA4F44912B533A4FF901249122235B
:1007500009F435C0992311F192509231F8F4E92F40
:10076000F0E08827E954FC4F8F4F0C94290C1C04AF
:100770002004C903E003E403CE03E803EE03F2031D
:10078000F803FC03000406040A04CE030E04140458
:100790001804809180008F7780938000E22FF0E032
:1007A000EE0FFF1FEB55FA4FA591B4918FB7F89458
:1007B000EC91611148C040954E234C938FBF089532
:1007C000809180008F7DE8CF80918000877FE4CF8B
:1007D0008091B0008F778093B000E0CF8091B0001F
:1007E0008F7DF9CF809190008F7780939000D6CF46
:1007F000809190008F7DF9CF80919000877FF5CF19
:100800008091A0008F778093A000C8CF8091A00036
:100810008F7DF9CF8091A000877FF5CF8091200157
:100820008F7780932001BACF809120018F7DF9CFFF
:1008300080912001877FF5CF84B58F7784BDAECFBF
:1008400084B58F7DFBCF4E2BB8CF3FB7F894809106
:10085000460490914704A0914804B091490426B5FC
:10086000A89B05C02F3F19F00196A11DB11D3FBFE8
:10087000BA2FA92F982F8827BC01CD01620F711DB7
:10088000811D911D42E0660F771F881F991F4A95B1
:10089000D1F70895089580E008950F931F93CF93A3
:1008A000DF93FC01A681B781C581D0E033E0D69506
:1008B000C7953A95E1F7362F3770E0E8F0E08F0101
:1008C00002C0159507953A95E2F7FC018281481B15
:1008D0004C9FC0014D9F900D1124669566956695BD
:1008E000680F792F711DA60FB71F8C91E02F22235F
:1008F00039F0E82BEC93DF91CF911F910F91089580
:10090000E095E823F7CFFB014181DC0112962C91A1
:100910001297421768F013962C911397241740F002
:10092000608115962C91621718F424810C944D0463
:100930000895FC0180819281980F92832181921702
:1009400060F494819F5F94839381890F821710F0E4
:100950008FEF820F838381E0089580E00895FC018A
:10096000128280818150838314820895DB01ED918E
:10097000FC911994AF92BF92CF92DF92EF92FF92C7
:100980000F931F93CF93DF931F92CDB7DEB76C0108
:10099000F42E8901FB01A280B380F2E34F1709F422
:1009A0005DC0F417E0F08CE2481709F457C0EDE29F
:1009B0004E1711F1F7E14F17A9F198014F2DB5012D
:1009C000C6010E94B6040F90DF91CF911F910F9145
:1009D000FF90EF90DF90CF90BF90AF90089586E4A6
:1009E000481781F1E7E49E012F5F3F4F46E4FE1672
:1009F00069F1FBE3FF12E1CFF801E0809E012F5F78
:100A00003F4F46E4B501C6010E94B604898181507A
:100A1000F8019181891B8083E18283818F5F8370DC
:100A200083832DC047E1B501C6010E94B604F801D9
:100A300093812081828131813083218392838383DA
:100A400081E0C1CF9E012F5F3F4F47E4B501C60152
:100A50000E94B6048981F8018083F2CFF801E0801A
:100A60009E012F5F3F4F46E4B501C6010E94B604C8
:100A700089818150F8019181891B8083E1829801ED
:100A80004F2DB501C6010E94B604DACF0F931F9314
:100A9000CF93DF931F92CDB7DEB78C01FC0162814B
:100AA00073819E012F5F3F4F46E40E94B604898107
:100AB000F8018083628173819E012F5F3F4F47E47D
:100AC000C8010E94B6048981F80181836281738123
:100AD00030E020E048E4C8010E94B604F8018387B2
:100AE00098012D5C3F4F6281738147E1C8010E94EC
:100AF000B6040F90DF91CF911F910F910895CF937E
:100B0000DF93C0915004D0915104E0917F04F091A3
:100B1000800482E0199530E020E04AE0BE018EE4D6
:100B200094E00E94B604C82FE0917F04F091800405
:100B300083E01995E0917F04F091800480E019959D
:100B4000CC2329F08EE494E00E944605C1E08C2F6E
:100B5000DF91CF91089580E008950B96FC01849178
:100B600008950A96FC0184910895FC0184910895EA
:100B70000E94B505882321F0823011F083E00895AA
:100B800086E00895FC01E60FF11D849190E0982F16
:100B900088273196E4918E0F911D089568E00C949A
:100BA000C20566E00C94C2052EE93FE0009709F407
:100BB0000895F9013197F1F70197F8CF90E0FC0122
:100BC000EE0FFF1FEF5CFB4F0190F081E02D875D82
:100BD0009B4FDC018C919081662319F0892B8083D7
:100BE000089580958923FBCF860F911DFC0183A179
:100BF0008F3F19F0642F0C94990308950F931F935E
:100C0000CF938C01C62F8FB780932804F89461701E
:100C100080E00E94DE05C1FB662760F981E00E944A
:100C2000DE05C2FB662760F982E00E94DE05C3FB99
:100C3000662760F983E00E94DE05C4FB662760F941
:100C400084E00E94DE05C5FB662760F985E00E940E
:100C5000DE05C6FB662760F986E00E94DE056C2F84
:100C6000661F6627661F87E00E94DE0580912804C4
:100C70008FBF41E064E0C8010E94F40584E090E089
:100C80000197F1F740E064E0C8010E94F40588E2B2
:100C900090E0FC013197F1F70197F1F7CF911F91A7
:100CA0000F910895EF92FF921F93CF93DF93EC0182
:100CB000142F79016150673008F0E6C0E62FF0E0AC
:100CC0008827EA59F94F8F4F0C94290C6D0680073D
:100CD0004B078207650771077D0788A590E0FC0137
:100CE000EB53FA4FE491F0E0EE0FFF1FEB55FA4F94
:100CF000259134913093320420933104FC01E55066
:100D0000FA4FE491E093290489A590E0FC01EB53AC
:100D1000FA4FE491F0E0EE0FFF1FEB55FA4F2591EB
:100D200034913093340420933304FC01E550FA4F9E
:100D3000E491E0932A048AA590E0FC01EB53FA4F7A
:100D4000E491F0E0EE0FFF1FEB55FA4F259134913F
:100D50003093360420933504FC01E550FA4FE491BA
:100D6000E0932B048BA590E0FC01EB53FA4FE49148
:100D7000F0E0EE0FFF1FEB55FA4F259134913093C1
:100D8000380420933704FC01E550FA4FE491E093D6
:100D90002C048CA590E0FC01EB53FA4FE491F0E0B9
:100DA000EE0FFF1FEB55FA4F2591349130933A0423
:100DB00020933904FC01E550FA4FE491E0932D04AF
:100DC0008DA590E0FC01EB53FA4FE491F0E0EE0FBB
:100DD000FF1FEB55FA4F2591349130933C0420933B
:100DE0003B04FC01E550FA4FE491E0932E048EA5FC
:100DF00090E0FC01EB53FA4FE491F0E0EE0FFF1F9F
:100E0000EB55FA4F2591349130933E0420933D04E5
:100E1000FC01E550FA4FE491E0932F048FA590E098
:100E2000FC01EB53FA4FE491F0E0EE0FFF1FEB559E
:100E3000FA4F259134913093400420933F04FC01F4
:100E4000E550FA4FE491E093300488A98F3F39F0E0
:100E50000E944D0340E06DE0CE010E94F4057E014A
:100E600083E2E80EF11CE096F70181917F018F3F4C
:100E700041F00E944D0361E0F701319780810E94AB
:100E80009903CE15DF0581F781E0DF91CF911F91A6
:100E9000FF90EF90089541E0112319F0113059F4BB
:100EA00040E062E0CE010E94F40541E063E0CE0143
:100EB0000E94F405E9CF41E0123009F040E062E021
:100EC000CE010E94F40540E0F1CF642FCE010E94D4
:100ED000FE05DACFF70161917F01CE010E94FE0588
:100EE00011501111F7CFD0CFF7016491CE010E94BC
:100EF000FE05FFEFEF1AFF0A11501111F5CFC4CF15
:100F000061E0D5CF8BA18F3F09F4BECF60E0CFCF9A
:100F1000DB011496ED91FC9130E020E065E019943E
:100F2000DB011496ED91FC9130E020E062E0199431
:100F3000DB011496ED91FC9130E020E063E0199420
:100F40009F92AF92BF92CF92DF92EF92FF920F9358
:100F50001F93CF93DF937C018B01942E69012AE0CC
:100F6000421751F185E1481709F488C0F801C281A0
:100F7000D381F2E39F1609F42BC1F91508F4CDC013
:100F800025E1921609F429C187E1981609F438C1C0
:100F900094E19912F1C0EE81FF818D8124E0829F5E
:100FA000C00111248E0F9F1F11928E179F07E1F72A
:100FB000CE010E94AF04E0C0DB011496ED91FC91DC
:100FC00030E020E043E061E0199580E098E5A92E4B
:100FD00091E0B92EF501C491811110C081E0CF3F9D
:100FE00049F04C2FB801C7010E948807882309F4F3
:100FF000BDCF80E0BFEFAB1ABB0AECCF4FEFCF3FC6
:1010000089F3CE3F09F4B2CFC03F98F7C03E38F025
:101010004C2F4F70B801C7010E949007EACFC03D26
:1010200038F04C2F4F70B801C7010E949807E1CFEC
:10103000C03CF8F0D8011496ED91FC9130E020E02E
:1010400040E064E0C7011995C295C07FCE5FD0E053
:10105000CE010E94D405D8011496ED91FC9130E0A8
:1010600020E041E064E0C7011995CE010E94D4055B
:10107000C0CFC7FDBECF8C2F90E0F8CFFB01A28080
:10108000B38040E0C7010E94900741E0B801C7016A
:101090000E949807D5011296CC9112971696AD90A2
:1010A000BC90D0E2DC0F40E0B801C7010E9490077D
:1010B0004EE3B801C7010E948807C03228F54C2FC3
:1010C0004068B801C7010E94880740E8B801C7011D
:1010D0000E94880741E0B801C7010E949007D8012B
:1010E0001496ED91FC91950140E166E0C7011995D8
:1010F000B0E1AB0EB11CCF5FCD13D5CF40E0B8014E
:10110000C7010E94980732CF40EE4C0F4068B801EB
:10111000C7010E94880748E8D9CFA6E49A1609F4C7
:1011200079C0B7E49B1609F479C0EBE39E1224C0A2
:10113000D60111969C91119713968C9138E0390F36
:10114000813031F0833011F0392F02C0392F98509F
:1011500021E04B81491708F420E041E0391708F0FD
:1011600040E091E05A81351708F490E0322F342B9B
:10117000932379F4242369F481E0DF91CF911F91C7
:101180000F91FF90EF90DF90CF90BF90AF909F9026
:101190000895F601128100E0F12C843048F490E0CB
:1011A000FC01EC5DFD4FF080805E9D4FDC010C91F9
:1011B00017FF04C0B601CE010E948304F6018081AE
:1011C0008F0D80838181800F8183110F89F7D4CFA8
:1011D000B601CE010E948304CFCFCE010E949904B4
:1011E000882359F2EE81FF818D81A4E08A9FC0019E
:1011F00011248E0F9F1F11928E179F07E1F7BCCF0E
:10120000F60110828A8181838D81815082838B8156
:101210008383B2CF8D81D6018C93AECF8981F601C5
:101220008083AACF3F924F925F926F927F928F926C
:101230009F92AF92BF92CF92DF92EF92FF920F9365
:101240001F93CF93DF93EC01B62EFCAC9BAC6C01EB
:1012500024E0C20ED11CE98DFA8DC6011995882EA5
:1012600008851985C8010E94B505E82E88859985ED
:101270000E94B805682E81E077247A94E81202C0B3
:101280002FE0722E888599850E94B105E82E888509
:1012900099850E94AD05A82E888599850E94CE0566
:1012A000E0E6EB1578F4009769F0080F191F91E656
:1012B000E92EAB14C0F41C8A1F8A188E1D8A1E8A60
:1012C00080E0A2C0888599850E94D105F0E4FB15D5
:1012D00038F4009729F0080F191F81E4E82EE9CFB0
:1012E0000F5E1F4FE6CFAE1430F3862D90E0F8016D
:1012F00024912F3F31F40F5F1F4FAE14E1F2E394BE
:10130000F6CFBE1074C0888599850E94B5059801F6
:101310002F5F3F4FF801882319F0823009F050C049
:1013200084918F8BF9012491288FF8013396E491F1
:10133000EC8BF8013496E491ED8BF8013596E4914D
:10134000EE8B0115110509F4BBCF888599850E94A4
:10135000B805388D7F2C731A9E89791A780C9FEF07
:10136000930F970D28AD4AAD471508F449C0921761
:1013700018F4971508F047C02F896D88690C9FEF06
:10138000920F960D4FA959AD561508F454C09417F5
:1013900018F4961508F037C0080F111D295F522E5A
:1013A000569456945694432E470C5E01F0E2AF0ECD
:1013B000B11C852C912C741431F1362C780151C05C
:1013C0008491982F9F7092509E8B82958F708D8BF9
:1013D000F9012491822F8F70888F22952F702F8B87
:1013E000F8013296E491E295EF70EC8BAACF329639
:1013F000E491E721E80FF92FF11D0E0F1F1F7DCF9C
:10140000921708F0B6CF8C899BAD890F8BAF81E026
:1014100090E0DF91CF911F910F91FF90EF90DF90BF
:10142000CF90BF90AF909F908F907F906F905F9084
:101430004F903F900895941708F0ABCFE4CFF70199
:1014400084916E817F8138A279A21BA28AA3950123
:101450004BE3C6010E94B604FFEFEF1AFF0A28E033
:10146000320E8E2D801B851550F3080D191D7394B7
:10147000A2CF089590E080E008951F920F920FB6DA
:101480000F9211242F933F938F939F93AF93BF930A
:101490008091420490914304A0914404B09145048A
:1014A0003091410423E0230F2D3768F126E8230F04
:1014B0000296A11DB11D2093410480934204909394
:1014C0004304A0934404B093450480914604909152
:1014D0004704A0914804B09149040196A11DB11D93
:1014E0008093460490934704A0934804B093490422
:1014F000BF91AF919F918F913F912F910F900FBE10
:101500000F901F9018950196A11DB11DD4CF78940E
:1015100084B5836084BD85B5836085BD80916E0090
:10152000816080936E0082E08093810080918100D1
:101530008160809381008091800081608093800031
:101540008091B10084608093B1008091B00081608F
:101550008093B0008091910083608093910080918E
:1015600090008160809390008091A10083608093BF
:10157000A1008091A00081608093A0008091210152
:1015800083608093210180912001816080932001FC
:1015900087E880937A001092C10080915004909166
:1015A000510422E08E30920751F090931102809303
:1015B00010028EE092E090935104809350048AEBE5
:1015C00094E090930F0280930E028EE494E00E94C8
:1015D000460500E010E07724739422E0622E8091AB
:1015E0008704811104C0709287040E947F05C09116
:1015F0005004D0915104E0917F04F091800482E086
:101600001995E0917F04F091800481E0199530E014
:1016100020E044E1BE018EE494E00E94B60421E89B
:1016200034E047E1BE018EE494E00E94B604E0910C
:101630007F04F091800480E019958091820487FDF9
:101640002CC080918104803440F595EAC92E91E048
:10165000D92ED0E07601C7E0F70184916091500463
:1016600070915104C0936A04D0936B0460926D042E
:1016700080936C042AE634E04BE38EE494E00E940D
:10168000B604FFEFEF1AFF0AC85FC73429F728E056
:10169000C20ED11CDF5FD038E9F6E0915C04F09116
:1016A0005D04309719F08EE494E01995E0905004B1
:1016B000F0905104E0917F04F091800482E019954C
:1016C000E0917F04F091800481E0199530E020E002
:1016D00045E1B7018EE494E00E94B604C82F882348
:1016E00041F021E834E047E1B7018EE494E00E9444
:1016F000B604E0917F04F091800480E01995C11157
:101700009CCF0E9425044B015C0184EFC82EDD2490
:10171000D394E12CF12C0E942504681979098A09D7
:101720009B09683E734081059105A8F381E0C81AC2
:10173000D108E108F108E8EE8E0EE3E09E1EA11C40
:10174000B11CC114D104E104F10429F701151105FC
:1017500009F445CF0E94000042CF10924D04109230
:101760004C0488E192E090934B0480934A041092D9
:1017700085041092860410928704109253041092EC
:10178000520410925504109254041092570481E0B0
:101790008093560482E28093580410925D04109264
:1017A0005C04E1E7F4E08FEF819394E0EF37F90711
:1017B000D9F791E090936E042BEA35E030936404FE
:1017C000209363049093650410926604109267045A
:1017D00090E490936804109269042AE434E0309312
:1017E000800420937F0428E032E03093510420935A
:1017F000500492E09093760493E09093770494E001
:101800009093780495E09093790496E090937A040D
:1018100097E090937B0498E090937C0499E09093F8
:101820007D049AE09093750480937304809374040C
:101830009BE0909372049CE090937E0480937104EB
:101840000E947F0588E192E090934B0480934A04C4
:101850000895EE0FFF1F881F8BBF0790F691E02DB4
:101860001994F894FFCF2040000000802802A007C0
:10187000000252064B0400000000000000001209A4
:0E1880006C033A0A390A000100FF0100FF0064
:10FE0000112424B614BE80E088D021FE49C18EE0C2
:10FE100084D0E0ECF0E0AFE7BFEF6099FECF9096C2
:10FE2000609BFDCFB4831197F1F7B2E0B083B8E1E6
:10FE3000B1835FD0C82F8235D1F475D0E0E0FDEFFB
:10FE400093E09BBFA8959F017E2F67916F3F11F4B0
:10FE5000E713FBCFF9019BBF19F083E0A2D0A0D03C
:10FE6000F15091099BBF70F780E93CD0E2CF8D7FC4
:10FE7000D9F44CD0D82FA0E0B2E03BD08D93DA1368
:10FE8000FCCFA0E0B2E04FD0C1110CC0F2BDE1BD8B
:10FE90008D9180BDFA9AF99A3196F999FECFD15099
:10FEA000A9F7E2CF4BD0E0CFC33041F42FD0C82F19
:10FEB0003AD0879117D0C150E1F7D6CFC13061F465
:10FEC00025D0C82F30D0F2BDE1BDF89A80B50AD058
:10FED0003196C150C1F7C8CFC13511F488E01DD0AB
:10FEE00022D0C2CF9091C00095FFFCCF8093C60076
:10FEF00008952D9A259A8091C00087FFFCCF84FD3C
:10FF000015C0A8958091C6002D980895F2DFE82FBE
:10FF1000F0DFF82FEEDF8BBFECCF98E1909360001D
:10FF2000809360000895E5DF803219F088E0F5DF06
:10FF3000FFCF80EAD7CF6BBFFA01DC01E0707A2FE8
:10FF40006BB7FE3F83E0680788F5603039F4309680
:10FF500029F48FEF8D938EEC8C93119790E047915D
:10FF60005D91451391605F3F09F092604523451311
:10FF70009460A713F4CFF1506BBFBA9590FF16C0F1
:10FF800092FF04C083E00DD091FF0AC081E00D9084
:10FF90001D9007D03296A713FACFF15085E001D01B
:10FFA00081E187BFE89517B610FCFDCF11240895B5
:06FFFA0002289CCFE74045
:00000001FF
